:020000040800F2
:10000000A013002045010008290600088504000807
:1000100025060008850200085312000800000000B1
:100020000000000000000000000000003D0B000880
:100030008902000800000000CD090008510C0008EA
:100040005F0100085F0100085F0100085F01000810
:100050005F0100085F0100085F0100080D03000850
:100060005F0100085F0100085F0100085F010008F0
:100070005F0100085F0100085F0100085F010008E0
:100080005F0100085F0100085F0100085F010008D0
:100090005F0100085F0100085F0100085F010008C0
:1000A0005F0100085F0100085F0100085F010008B0
:1000B0005F0100085F010008B50C00085F0100083F
:1000C0005F0100085F0100085F0100085F01000890
:1000D0005F010008B10F0008251000085F0100084B
:1000E0008D0200085F0100085F0100085F01000841
:1000F0005F0100085F0100085F0100085F01000860
:100100005F0100085F0100085F0100085F0100084F
:100110005F0100085F0100085F0100085F0100083F
:100120005F0100085F0100085F0100085F0100082F
:10013000DFF80CD000F04AF8004800476D1C0008BA
:10014000A01300200648804706480047FEE7FEE768
:10015000FEE7FEE7FEE7FEE7FEE7FEE7FEE7FEE777
:10016000550C0008310100082DE9F05F054600201C
:1001700092469B4688460646814640241BE0284618
:1001800041464746224600F042F853465A46C01AB6
:10019000914110D311461846224600F029F82D1A35
:1001A00067EB01084F4622460120002100F020F8AD
:1001B00017EB00094E41201EA4F10104DFDC484684
:1001C00031462A464346BDE8F09F0000064C074DE5
:1001D00006E0E06840F0010394E807009847103417
:1001E000AC42F6D3FFF7A8FF84340008A43400081B
:1001F000202A04DB203A00FA02F1002070479140E7
:10020000C2F1200320FA03F3194390407047202ADB
:1002100004DB203A21FA02F00021704721FA02F3B0
:10022000D040C2F12002914008431946704770B592
:100230008C1810F8015B15F0070301D110F8013B91
:100240002A1106D110F8012B03E010F8016B01F818
:10025000016B5B1EF9D12B0705D40023521E0DD470
:1002600001F8013BFAE710F8013BCB1A921C03E0BE
:1002700013F8015B01F8015B521EF9D5A142D8D3F6
:10028000002070BD00BFFEE77047000010B50A20D7
:1002900001F0ACFB4FF40041184800F0E6F830B92B
:1002A000102317A20621482000F04EFB18E04FF45F
:1002B0008041124800F0D9F830B9102311A206216C
:1002C000482000F041FB0BE04FF400510B4800F0D8
:1002D000CCF828B910230CA20621482000F034FBEA
:1002E0004FF4005000F030F84FF4804000F02CF84C
:1002F0004FF4004000F028F810BD0000001001404D
:1003000033000000320000003100000010B50A2068
:1003100001F06CFB0221094800F0A7F850B900F089
:10032000BDF90A2001F062FB102305A2062122205C
:1003300000F00AFB022000F007F810BD00080140A1
:100340004B65793A200000000149086070470000C1
:10035000140401402DE9F04102460025002600204A
:1003600000230024002791F803C00CF00F0591F83A
:1003700003C00CF0100CBCF1000F03D091F802C0C8
:100380004CEA050591F800C0BCF1000F31D01468AB
:1003900000202BE04FF0010C0CFA00F3B1F800C084
:1003A0000CEA03069E4220D183004FF00F0C0CFA9A
:1003B00003F7BC4305FA03FC4CEA040491F803C0BC
:1003C000BCF1280F06D14FF0010C0CFA00FCC2F86A
:1003D00014C00AE091F803C0BCF1480F05D14FF0FA
:1003E000010C0CFA00FCC2F810C0401C0828D1D344
:1003F0001460B1F800C0BCF1FF0F34DD5468002078
:100400002EE000F1080C4FF0010808FA0CF3B1F8E7
:1004100000C00CEA03069E4221D183004FF00F0C6E
:100420000CFA03F7BC4305FA03FC4CEA040491F808
:1004300003C0BCF1280F05D100F1080C08FA0CF834
:10044000C2F8148091F803C0BCF1480F07D100F145
:10045000080C4FF0010808FA0CF8C2F81080401C94
:100460000828CED35460BDE8F0810246002093688E
:100470000B400BB1012000E0002070474161704744
:100480000161704700BFFEE708B50121082000F0B8
:10049000AFFA4FF44060ADF8000010208DF8030073
:1004A00003208DF8020069460448FFF753FF4FF41C
:1004B00040610248FFF7E4FF08BD0000000C014066
:1004C00070B504461548006820F470401349086070
:1004D0000846006840F44050086000201049086059
:1004E000002517E0E0090E49091D08606006040EAA
:1004F000022001F0A1FA01200A49C1F8A801022056
:1005000001F09AFA002006490860022001F094FAEE
:10051000681CC5B2082DE5DB70BD0000040C01406D
:10052000A88121420080214210B50F48006820F4C4
:1005300070400D4908600846006840F4405008606B
:1005400001200A4908600A49C1F8A801042001F005
:1005500073FA002005490860042001F06DFA0020BC
:100560000349C1F8A80110BD040C0140AC8121422F
:100570000080214210B50F48006820F470400D49FA
:1005800008600846006840F44050086000200A49AE
:1005900008600A49C1F8AC01042001F04DFA0120BD
:1005A000054908600549C1F8AC01042001F044FA8E
:1005B00010BD0000040C0140A881214200802142AE
:1005C00010B500241448006820F4704012490860F7
:1005D0000846006840F40040086001200F490860A8
:1005E00001F02AFA01200E49C1F8A80101F024FA0D
:1005F00007E0601CC4B2FA2C03DDFFF7BBFF01204B
:1006000010BD0648803800680028F2D10349091F50
:10061000086000BFF4E70000040C0140AC812142F7
:100620000080214200BFFEE77047000070B5002146
:1006300000230F22C47804B3154C246804F4E0644A
:10064000C4F5E064210AC1F10403CA40447804FA05
:1006500003F184781440214309010E4C0678A1551A
:10066000047804F01F050124AC4005786D11AD003D
:1006700005F1E025C5F8004109E0047804F01F0504
:100680000124AC40044D0678761145F8264070BD33
:100690000CED00E000E400E080E100E070B5002433
:1006A00015E004F1B001C8B200F01CFA022000F01D
:1006B00019FA102000F016FA002504E0002000F0DE
:1006C00027FA681CC5B2802DF8DB601CC4B2082C68
:1006D000E7DB70BD10B50021AE2000F052F900211B
:1006E000084600F04EF90021102000F04AF90021E0
:1006F000402000F046F90021B02000F042F900212E
:10070000812000F03EF90021FF2000F03AF900219D
:10071000A12000F036F90021A62000F032F90021D6
:10072000A82000F02EF900213F2000F02AF9002136
:10073000C82000F026F90021D32000F022F9002182
:10074000084600F01EF90021D52000F01AF900211A
:10075000802000F016F90021D82000F012F90021C5
:10076000052000F00EF90021D92000F00AF900213F
:10077000F12000F006F90021DA2000F002F9002152
:10078000122000F0FEF80021DB2000F0FAF8002132
:10079000302000F0F6F800218D2000F0F2F8002162
:1007A000142000F0EEF80021AF2000F0EAF810BDB0
:1007B00070B504460D4605F1B001C8B200F092F9DB
:1007C000102141EA141000F08DF904F00F0000F040
:1007D00089F970BD2DE9F04707460E4690469946C7
:1007E00000250024A8F12000C5B27F2F02DD0027DC
:1007F000B01CC6B2B9F1100F22D131463846FFF70E
:10080000D7FF002407E004EB0511174A505C00F005
:100810007FF9601CC4B2082CF5DB701CC1B23846ED
:10082000FFF7C6FF002408E004EB051108310E4A6B
:10083000505C00F06DF9601CC4B2082CF4DB11E0D0
:1008400031463846FFF7B4FF002409E005EB4501C7
:10085000064A02EB4101085D00F05AF9601CC4B27F
:10086000062CF3DBBDE8F087640200203C0000208A
:100870002DE9FC410746884615461E46002430A156
:1008800003C9CDE90001062E51D2DFE806F0504140
:100890003223130342F2107095FBF0F00A2190FB13
:1008A000F1F201FB12003030C0B20DF80400601C00
:1008B000C4B200BF4FF47A7095FBF0F00A2190FBB0
:1008C000F1F201FB12003030C0B20DF80400601CE0
:1008D000C4B200BF642095FBF0F00A2190FBF1F256
:1008E00001FB12003030C0B20DF80400601CC4B22D
:1008F00000BF0A2095FBF0F00A2190FBF1F201FB0A
:1009000012003030C0B20DF80400601CC4B200BF49
:100910000A2095FBF0F100FB11503030C0B20DF809
:100920000400601CC4B200200DF8040000BF00BF2A
:1009300010236A464146384600F006F8BDE8FC81BF
:1009400030303030303000002DE9F04104460F46A1
:100950001546984600260FE0AA5D434639462046D4
:10096000FFF738FF04F10800C4B2782C02DD002440
:10097000B81CC7B2701CC6B2A85D0028ECD1BDE897
:10098000F08170B504460D4625B1E1B2402000F07B
:1009900006F803E0E1B2002000F001F870BD70B588
:1009A00005460C46FFF7C0FD7820FFF789FDFFF7ED
:1009B00007FE2846FFF784FDFFF702FE2046FFF7FB
:1009C0007FFDFFF7FDFDFFF7D5FD70BD704700000F
:1009D00029B1064AD2690243044BDA6104E0034AB2
:1009E000D2698243014BDA61704700000010024077
:1009F00029B1064A92690243044B9A6104E0034A12
:100A000092698243014B9A617047000000100240D6
:100A100030B500210022002400232D4D6D6805F023
:100A20000C0121B1042905D0082923D105E0294D65
:100A3000056022E0274D05601FE0254D6D6805F437
:100A40007012234D6D6805F48034022505EB924247
:100A50001CB9214D554305600BE01D4D6D6805F433
:100A600000351DB11C4D5543056002E0194D55433D
:100A7000056002E0174D056000BF00BF144D6D68B2
:100A800005F0F0010909154D6B5C0568DD40456016
:100A90000F4D6D6805F4E061090A104D6B5C456807
:100AA000DD4085600A4D6D6805F46051C90A0B4D43
:100AB0006B5C4568DD40C560054D6D6805F44041DF
:100AC000890B074D6B5CC568B5FBF3F5056130BD5F
:100AD0000010024000127A0000093D0014000020BE
:100AE0002400002010B50446FFF71EFD7820FFF714
:100AF000E7FCFFF765FD0020FFF7E2FCFFF760FD74
:100B00002046FFF7DDFCFFF75BFDFFF733FD10BD6F
:100B100010B50446FFF708FD7820FFF7D1FCFFF77A
:100B20004FFD4020FFF7CCFCFFF74AFD2046FFF7C2
:100B3000C7FCFFF745FDFFF71DFD10BD704710B561
:100B400000F002F810BD00000CB5002001900090EC
:100B50003348006840F480303149086000BF3048B5
:100B6000006800F4003000900198401C019000984B
:100B700018B90198B0F5A06FF1D12948006800F4C8
:100B8000003010B10120009001E00020009000989A
:100B9000012843D12348006840F010002149086033
:100BA0000846006820F0030008600846006840F02E
:100BB000020008601A4840681949486008464068C1
:100BC00048600846406840F48060486008464068D5
:100BD00020F47C1048600846406840F4E810486003
:100BE0000846006840F08070086000BF0C4800684C
:100BF00000F000700028F9D00948406820F0030098
:100C0000074948600846406840F00200486000BF5D
:100C10000348406800F00C000828F9D10CBD000022
:100C20000010024000200240042808D14FF0E021CB
:100C3000096941F004014FF0E022116107E04FF033
:100C4000E021096921F004014FF0E02211617047B1
:100C50007047000010B51348006840F001001149CA
:100C6000086008464068104908400E494860084638
:100C700000680E4908400B4908600846006820F4E7
:100C8000802008600846406820F4FE0048604FF469
:100C90001F008860FFF753FF4FF0006004490860B1
:100CA00010BD0000001002400000FFF8FFFFF6FE3C
:100CB00008ED00E010B501210A4800F035F80128E0
:100CC0000AD10949086980470021064800F0EEF87A
:100CD0006421044800F0E3F80121024800F009F81B
:100CE00010BD000000080040E40D0020CA4302824D
:100CF0007047CA430282704721B1028842F0010264
:100D0000028004E002884FF6FE731A4002807047AA
:100D10000146888C704702460020138A0B400BB1B5
:100D2000012000E00020704730B50246002000237B
:100D30000024158A05EA0103958905EA010413B127
:100D40000CB1012000E0002030BD1AB183890B43B3
:100D5000838102E083898B438381704770B50024CF
:100D600000220023058C4FF6FE7635400584028C68
:100D70008388048B4FF68F752C40B51E2C400D8850
:100D80002C43751E2A400D892A434D882A43144D51
:100D9000A8420BD0134DA84208D0134DA84205D04D
:100DA000124DA84202D0124DA84213D14FF6F7754A
:100DB0002A404D892A434FF6FB752A408D882A43E5
:100DC0004FF6FF652B404FF6FF552B408D892B4387
:100DD000CD892B4383800483CD888586028470BDB2
:100DE000002C01400034014000400140004401401B
:100DF000004801400A460021018B4FF6F773194065
:100E0000114301837047000070B5002200230024C5
:100E1000058C4EF6FF7635400584038C8488828BE2
:100E200048F6FF752A404FF6FF452A400D884FF6D9
:100E3000FF7606EA05252A434DF6FF752B400D89FE
:100E400006EA05352B434D8806EA05352B430B4D45
:100E5000A84202D00A4DA84208D14BF6FF752C409B
:100E60008D894FF6FF7606EA85152C4384808283B0
:100E7000CD88A0F84050038470BD0000002C0140D4
:100E8000003401400A460021818B4FF2FF73194064
:100E90004FF6FF7303EA022319438183704781856C
:100EA000704781867047A0F8401070478184704772
:100EB000002202881D4B98420ED01D4B98420BD049
:100EC000B0F1804F08D01B4B984205D01A4B984286
:100ED00002D01A4B984204D14FF68F731A404B88B8
:100EE0001A43174B984207D0164B984204D04FF63E
:100EF000FF431A40CB881A4302808B8883850B8876
:100F000003850A4B98420BD0094B984208D00E4BF0
:100F1000984205D00D4B984202D00D4B984201D11A
:100F20000B7A03860123838270470000002C014066
:100F3000003401400004004000080040000C004064
:100F400000100040001400400040014000440140F7
:100F5000004801407FB505460C4601210420FFF7FB
:100F600037FDADF80850ADF804400020ADF80A0098
:100F7000ADF8060001A90D48FFF79AFF01224121B3
:100F80000A48FFF7E2FE1E208DF8000003208DF8CE
:100F900001008DF8020001208DF803006846FFF77C
:100FA00045FB01210148FFF7A7FE7FBD0008004077
:100FB00010B540F22551174800F08AF848B315489B
:100FC00000F042F9C4B21448008800F4004000BBAD
:100FD000552C0DD11048008840F400400E4908807F
:100FE0000E488178407801EB00200D49088010E020
:100FF00009480088C0F30D0008490C5406480088D1
:10100000401C0549088008460088C72801DD0020EB
:10101000088010BD003801409C0D0020D80E002033
:101020001000002010B540F225511F4800F050F884
:10103000002838D01C4800F007F9C4B21B480088CB
:1010400000F4004078BB552C1CD119480078AA2820
:1010500014D11648008840F4004014490880144810
:101060008178407801EB002012490880084600880A
:1010700047F2305108440F49088014E000200B4922
:10108000088010E009480088C0F30D0008490C549E
:1010900006480088401C0549088008460088C72883
:1010A00001DD0020088010BD004400409C0D0020A0
:1010B000D80E00201000002021B1828942F4005295
:1010C000828104E082894DF6FF731A408281704765
:1010D00070B50246002400230025002040F66A1661
:1010E000B14200D100BFC1F3421501F01F03012638
:1010F00006FA03F3012D02D19689334006E0022D52
:1011000002D1168A334001E0968A33400C12012640
:1011100006FA04F41688344013B10CB1012000E043
:10112000002070BDF0B503460024002600250020F5
:1011300040F66A17B94200D100BF1846C1F3421405
:1011400001F01F06012707FA06F5012C01D10C302A
:1011500004E0022C01D1103000E014301AB107680D
:101160002F43076002E00768AF430760F0BD00004F
:101170002DE9F04786B005460E460024A24600BF82
:10118000A1460027B08900B100BF2F462C8A4CF63B
:10119000FF700440F08804432C82AC894EF6F310B3
:1011A0000440B08831890843718908430443AC8105
:1011B000AC8A4FF6FF400440B0890443AC8201A8DA
:1011C000FFF726FC1F48874202D1DDF810A001E09E
:1011D000DDF80CA0A88900F4004040B10AEBCA0079
:1011E00000EB0A1031684900B0FBF1F807E00AEBA8
:1011F000CA0000EB0A1031688900B0FBF1F86420E6
:10120000B8FBF0F004012009642101FB1089A889D2
:1012100000F4004040B1322000EBC900B0FBF1F017
:1012200000F00700044308E0322000EB09106421BD
:10123000B0FBF1F000F00F0004432C8106B0BDE8D4
:10124000F08700000038014001468888C0F308009C
:10125000704700BFFEE700000FB4054B10B503A9AF
:10126000044A029800F018F810BC5DF814FB000066
:101270008D1B0008980D002002E008C8121F08C14D
:10128000002AFAD170477047002001E001C1121F07
:10129000002AFBD1704700002DE9FF4F8DB00F46AB
:1012A0000546002606E025280BD0DDE90F12904701
:1012B0006D1C761C28780028F5D111B03046BDE8A9
:1012C000F08F0024A246A1460122EC4900E004432D
:1012D00015F8013F203B02FA03F00842F7D12878C5
:1012E0002A2810D06FF02F022878A0F130010929A8
:1012F00014D80AEB8A0102EB410144F0020400EB2E
:10130000010A6D1CF0E701CF5FEA000A03D544F43F
:101310000054CAF1000A44F002046D1C28782E28FB
:1013200017D115F8010F44F004042A280ED06FF0ED
:101330002F022878A0F1300109290AD809EB890188
:1013400002EB410100EB01096D1CF2E757F8049B29
:101350006D1C28786C280FD006DC4C2817D0682824
:101360000DD06A2814D104E0742810D07A280FD147
:101370000DE044F400140AE044F4801401E044F465
:1013800040146978814202D104F580146D1C6D1CF3
:101390002A786E2A1FD00CDC632A31D004DC002AA4
:1013A0008BD0582A11D1A3E0642A68D0692A0CD1C5
:1013B00065E0732A2ED004DC6F2A73D0702A04D122
:1013C0009BE0752A6FD0782A6ED01046DDE90F12A7
:1013D0009047761C50E1C4F30250022806D003283F
:1013E00009D0042801CF09D0066045E101CFF117EB
:1013F000C0E9006140E101CF06803DE106703BE1BC
:1014000017F8040B8DF8000000208DF80100EB4662
:10141000012003E057F804BB4FF0FF3061074FF0A5
:10142000000102D40DE008F10101884649450FDAB8
:101430008045F8DB1BF808100029F4D108E008F11A
:10144000010188468142FADB1BF808100029F6D119
:10145000DDE90F23AAEB08008146214600F036F9AA
:10146000304400EB080604E0DDE90F121BF8010B25
:101470009047B8F10108F7D221464846F7E00A2123
:10148000C4F302534FF0000B0891022B04D001CF9C
:10149000C117032B09D00AE0FF1D27F00707F7E863
:1014A000020108E032E01FE020E000B2C117042B87
:1014B00001D140B2C117031E71F1000307DA4FF0EA
:1014C000000CD0EB0C006CEB01012D2302E0230596
:1014D00004D52B238DF82430012303E0E30701D04A
:1014E0002023F7E7984658E00A2110E010210EE08B
:1014F00010204FF0000B08900CE010214FF0000B73
:1015000044F004044FF00809089103E008214FF06B
:10151000000B0891C4F30253022B04D001CF002129
:10152000032B06D006E0FF1D27F00707F7E80201AE
:1015300003E080B2042B00D1C0B24FF000082307B3
:101540002BD5702A07D0DDF820C08CF0100C5CEA97
:101550000B0C05D00EE040238DF82430012308E069
:1015600050EA010306D030238DF824308DF8252071
:1015700002239846DDF820C08CF0080C5CEA0B0CC6
:101580000BD150EA010301D1630706D530238DF852
:1015900024304FF00108A9F10109582A04D038A2DB
:1015A0000B9208AA0A920BE03AA2F9E75B46089A66
:1015B000FEF7DAFD0B9B9B5C0A9A521E0A9213708F
:1015C00050EA0102F2D10A98ADEB000000F1200BC5
:1015D000600702D524F4803401E04FF00109D945B9
:1015E00002DDA9EB0B0000E0002000EB0B01414401
:1015F0000890AAEB010AE00306D4DDE90F23214697
:10160000504600F063F806444FF0000908E009A9CD
:1016100011F80900DDE90F12904709F10109761C64
:10162000C145F4DBE0030CD5DDE90F23214650462C
:1016300000F04CF8064404E0DDE90F12302090473A
:10164000761C0899481E08900029F5DC08E00A98E5
:101650000A990078491C0A91DDE90F129047761C1F
:10166000BBF10001ABF1010BF1DC21465046DDE995
:101670000F2300F019F806446D1C1BE60928010031
:1016800030313233343536373839616263646566F8
:1016900000000000303132333435363738394142BA
:1016A00043444546000000002DE9F0410446002572
:1016B0001E461746880404D405E039462020B0476A
:1016C0006D1C641EF9D52846BDE8F0812DE9F04176
:1016D000044600251E469046C80301D5302700E089
:1016E0002027880404D505E041463846B0476D1CE4
:1016F000641EF9D52846BDE8F081000010B5044607
:101700001748008800F4004048B1002014490880C0
:1017100005231448028803213020FFF7A9F8A4F11B
:10172000FA0010490988884206DD122000F01CF8F2
:10173000142000F05BF912E00A48018804F1FA0075
:10174000814206DD142000F00FF8142000F04EF95D
:1017500005E0052000F008F8142000F047F910BD5E
:101760009C0D00201000002010B50446062C77D0F8
:1017700005DC26D2DFE804F0250C2678405A072C39
:101780006FD0082C6ED0122C6DD0142C19D1E8E03B
:1017900001208249086000208149C1F89C01012094
:1017A0007E490C31086000207D49C1F8A00140F657
:1017B00098017C48FFF775FB40F6E8017948FFF790
:1017C00072FBE8E001207549086000207449C1F807
:1017D0009C01012071490C31086000207049C1F85A
:1017E000A0014FF416616F48FFF75BFB40F2DC513C
:1017F0006C48FFF758FBCEE00120684908600020E4
:101800006749C1F89C01012064490C31086000203F
:101810006349C1F8A00140F2DC516248FFF741FB87
:101820004FF416615F48FFF73EFBB4E000205B49D0
:10183000086001205A49C1F89C01002057490C3129
:10184000086001205649C1F8A00140F698015548AA
:10185000FFF727FB40F6E8015248FFF724FB9AE028
:1018600019E031E049E062E001204C4908604C4950
:10187000C1F89C0149490C3108604949C1F8A001EF
:1018800040F698014748FFF70CFB40F6E801454851
:10189000FFF709FB7FE00120404908600020404934
:1018A000C1F89C013D490C31086001203C49C1F858
:1018B000A00140F666013B48FFF7F3FA40F2DC5125
:1018C0003848FFF7F0FA66E000203449086001204C
:1018D0003349C1F89C0131490C310860002030497E
:1018E000C1F8A00140F2DC512E48FFF7DAFA40F6C9
:1018F00066012C48FFF7D7FA4DE001202749086020
:1019000000202749C1F89C01012024490C310860BE
:1019100000202349C1F8A00140F6BE212148FFF76D
:10192000C0FA4FF42F611F48FFF7BDFA33E00020E3
:101930001A49086001201A49C1F89C010020174982
:101940000C31086001201649C1F8A00140F2DC51B9
:101950001448FFF7A6FA4FF416611248FFF7A3FAEE
:1019600019E000200D49086001200D49C1F89C01D3
:1019700000200A490C31086001200949C1F8A00182
:101980004FF416610748FFF78CFA40F2DC51054826
:10199000FFF789FA00BF00BF10BD00009881214207
:1019A000008021420004004010B56FF00400FFF7F2
:1019B0003BF90A4800680A49B0FBF1F00949087090
:1019C0000846007800EB4001C1EBC0104FF6FF71F4
:1019D00001EAC0000449088010BD00002800002072
:1019E00000127A00940D0020960D00200146114A45
:1019F00012884A434FF0E0235A6100229A611A4646
:101A0000126942F001021A6100BF4FF0E022106932
:101A100000F001021AB100F48032002AF5D04FF034
:101A2000E022126922F001024FF0E0231A61002245
:101A30009A617047960D00200146114A12784A4378
:101A40004FF0E0235A6100229A611A46126942F06F
:101A500001021A6100BF4FF0E022106900F001029C
:101A60001AB100F48032002AF5D04FF0E02212695A
:101A700022F001024FF0E0231A6100229A617047C0
:101A8000940D002010B56420FFF7B0FFFEF722FE92
:101A9000FEF704FE6420FFF7A9FF102305A2002132
:101AA0002220FEF751FF102304A203210C20FEF791
:101AB0004BFF10BD52756E6E696E67005961773AC3
:101AC0000000000008B501210C20FEF791FF4FF443
:101AD000C850ADF8000010208DF8030003208DF8E9
:101AE000020069460A48FEF735FC4FF4C851084821
:101AF000FEF7C4FC4FF47E70ADF80000694605485F
:101B0000FEF728FC4FF478710248FEF7B7FC08BDD9
:101B100000080140000C014010B50120FFF724FE31
:101B20004FF47A70FFF762FF4FF47A70FFF75EFFB1
:101B30000220FFF719FE4FF47A70FFF757FF4FF4BA
:101B40007A70FFF753FF0420FFF70EFE4FF47A7010
:101B5000FFF74CFF4FF47A70FFF748FF0520FFF7BF
:101B600003FE4FF47A70FFF741FF4FF47A70FFF7EE
:101B70003DFF0320FFF7F8FD4FF47A70FFF736FFC3
:101B80004FF47A70FFF732FF10BD000000BF054A26
:101B9000128802F04002002AF9D0C2B2014B1B1D8C
:101BA0001A8070470038014000F0010119B101218D
:101BB0002C4A116002E000212A4A116000F0020163
:101BC00021B10121274A0C32116003E00021254A8E
:101BD0000C32116000F0040121B10121214A1032C0
:101BE000116003E000211F4A1032116000F008016B
:101BF00019B101211C4A116002E000211A4A11604A
:101C000000F0100121B10121174A121D116003E0FB
:101C10000021154A121D116000F0200121B101219F
:101C2000114A0832116003E000210F4A08321160A6
:101C300000F0400121B101210B4A0C32116003E098
:101C40000021094A0C32116000F0800121B101210C
:101C5000054A1032116003E00021034A103211607E
:101C600070470000A00121429481214200F0EAF96E
:101C7000FFF708FF4FF47A70FFF7B8FE4FF47A7061
:101C8000FFF7B4FE4FF47A70FFF7B0FE00BF2E48A6
:101C9000008800F400400028F9D000202A4908807C
:101CA0004FF47A70FFF7A2FE01202849087049E03E
:101CB00027480078012837D124480078012804D12A
:101CC00047F2305000F078F92BE0204800780228E5
:101CD00004D147F2305000F06FF922E01B48007841
:101CE000032804D147F2305000F066F919E0174894
:101CF00000786F2804D149F6580000F05DF910E033
:101D000012480078702804D149F65800FFF7F6FC15
:101D100007E00E480078712803D14BF6803000F0C0
:101D20004BF900F01BF805E00A480078012801D1C2
:101D3000FFF7F2FE08480068401C0749086032209F
:101D4000FFF754FEB4E700009C0D002009000020BE
:101D5000080000200A0000200000002010B56248A2
:101D60000078012837D161480068382820D36048BE
:101D70000078012803D05E480078022821D1032092
:101D8000FFF7F2FC4FF4FA70FFF730FE5848007886
:101D900001280ED16E205449087049F6580000F011
:101DA000B9F96F20504908705048006851490860DF
:101DB00099E078204C49087045F2082000F0AAF913
:101DC00091E049480078401C47490870474800683E
:101DD0004849086087E044480078022817D1434802
:101DE000016844480068323081427CD33E48007824
:101DF000401C3D4908700320FFF7B6FC4FF47A7091
:101E0000FFF7F4FD394800683A4908606BE036484E
:101E10000078032817D135480168364800683C30FF
:101E2000814260D330480078401C2F49087003205D
:101E3000FFF79AFC4FF47A70FFF7D8FD2B48006843
:101E40002C4908604FE0284800786F2817D12748B0
:101E50000168284800682330814244D32248007832
:101E6000401C214908700320FFF77EFC4FF47A7074
:101E7000FFF7BCFD1D4800681E49086033E01A48A2
:101E80000078702819D1194801681A48006837305D
:101E9000814228D314480078401C1349087003205D
:101EA000FFF762FC6420FFF7A1FD012000F0E6F8D7
:101EB0000E4800680F49086015E00B48007871284B
:101EC00011D10A4801680B480068323081420AD3B8
:101ED00005480078401C044908700320FFF744FCC3
:101EE0006420FFF783FD10BD0900002000000020E2
:101EF0000C0000200400002000B589B0012104205E
:101F0000FEF776FD01210820FEF772FD0121022077
:101F1000FEF75EFD01210846FEF76AFD4020ADF8A0
:101F2000200003208DF8220018208DF8230008A936
:101F30001C48FEF70FFA0220ADF8200008A91A4845
:101F4000FEF708FA41F61F40ADF81800C720ADF8BB
:101F500014000020ADF81A00ADF8160005A91348CA
:101F6000FEF7A6FF6020ADF804000120ADF80600E2
:101F70000020ADF80C0001A90C48FEF7EFFE082187
:101F80000A48FEF737FF01A90848FEF73DFF082180
:101F90000648FEF777FF01210448FEF7ADFE09B0C1
:101FA00000BD000000080140000C0140000400409A
:101FB000014608687047000070B505464BF6803052
:101FC00085420CD11D48008847F23051884206DA1C
:101FD0001A48008848F6A041084484B201E0174836
:101FE00004881748008800F4004048B100201449D4
:101FF000088005231148028803213020FEF738FCB1
:10200000A5F1FA00A04206DD0220FFF7ADFB142087
:10201000FFF7ECFC10E005F1FA00844206DD042035
:10202000FFF7A2FB1420FFF7E1FC05E00120FFF71A
:102030009BFB1420FFF7DAFC70BD000010000020AD
:102040009C0D002010B5FFF7AFFCFEF71DFA4FF412
:10205000E13000F0F5F84FF4E13000F09FF8FFF7C1
:1020600031FDFFF749FF64210348FEF71AFF6421A1
:102070000148FEF718FF10BD0004004010B50446EB
:1020800039E02248008800F4004048B100201F4990
:10209000088005231E48028803213020FEF7E8FB54
:1020A000012C13D11A4800884BF6E43188420CDA2F
:1020B0001748008847F23051884206DD0620FFF7B6
:1020C00053FB3220FFF792FC15E015E01048008822
:1020D000643042F6E06188420CDD0D48008847F22A
:1020E0003051884206DA0720FFF73EFB3220FFF727
:1020F0007DFC00E000E0C4E700BF0320FFF734FBF5
:102100004FF49670FFF772FC10BD00009C0D00208C
:102110001000002070B504461E480088A04201DA75
:10212000012500E000252BE01B48008800F400405A
:1021300048B1002018490880052316480288032169
:102140003020FEF795FB012D0DD11248018804F1D6
:102150007800814206DA0620FFF706FB3220FFF7FF
:1021600045FC0DE00DE00B4800886430844206DA3F
:102170000720FFF7F9FA3220FFF738FC00E000E013
:10218000D2E700BF0320FFF7EFFA4FF49670FFF796
:102190002DFC70BD100000209C0D002010B586B0F5
:1021A000044601210420FEF723FC01214804FEF728
:1021B0000FFC0420ADF8140003208DF81600182041
:1021C0008DF8170005A91C48FEF7C4F80820ADF8E3
:1021D000140004208DF8170005A91748FEF7BAF877
:1021E00026208DF8000003208DF8010002208DF8D4
:1021F000020001208DF803006846FEF717FA0194EB
:102200000020ADF80800ADF80A00ADF80C00ADF8FC
:1022100010000C20ADF80E0001A90848FEF7A8FF39
:10222000012240F225510548FEF77CFF01210348B9
:10223000FEF742FF06B010BD000801400044004018
:1022400010B586B00446012144F20400FEF7D0FB2D
:102250004FF40070ADF8140003208DF8160018201C
:102260008DF8170005A91C48FEF774F84FF480603C
:10227000ADF8140004208DF8170005A91648FEF7E4
:1022800069F825208DF8000003208DF801008DF8F5
:10229000020001208DF803006846FEF7C7F901949B
:1022A0000020ADF80800ADF80A00ADF80C00ADF85C
:1022B00010000C20ADF80E0001A90848FEF758FFE9
:1022C000012240F225510548FEF72CFF0121034869
:1022D000FEF7F2FE06B010BD0008014000380140D4
:1022E00030B595B0054613AB12AA09A9284600F0EF
:1022F00039FA044614B1204615B030BD00201490C0
:1023000026E0224909689DF8502001EBC20113AB79
:1023100011AA486801A900F025FA04460CB120462C
:10232000EAE709A901A800F0BBFC60B99DF84400E8
:102330009DF84810884201DD0220DDE79DF850003D
:10234000124988750AE09DF85000401CC0B21490F4
:102350000E48007D9DF850108842D2DC00BF0B482B
:10236000007D9DF85010884201D10420C4E714A9D3
:10237000284600F0D7FA04460CB12046BCE79DF889
:102380005000024948750020B6E70000E40D002027
:102390002DE9F0419AB09C48847D007DA04202DC8A
:1023A0001AB0BDE8F0819849096801EBC40106AB99
:1023B00007AA486808A900F0D5F908A993A0FEF774
:1023C0004BFF002644E09048008B0121B1400840BB
:1023D000D8B122218FA0FEF73FFF304600F028FB46
:1023E00089492431471839468BA0FEF735FF222151
:1023F00088A0FEF731FF304600F01AFB82492431F5
:10240000084410A941F8260018E0304600F010FBFF
:102410007D492431085810A941F826007A48C07D2A
:1024200030B910A850F826107CA0FEF715FF05E083
:1024300010A850F826107AA0FEF70EFF9DF81C0099
:10244000401EB04202D078A0FEF706FF701CC6B254
:102450009DF81C008642B6DB74A0FEF7FDFE00F07E
:1024600039FB6948407D0B280DD2DFE800F0060DEE
:10247000151E27323F4E5F7287006349096851F885
:1024800034008047054690E05F4A126852F83410E5
:1024900010988847054688E05B4B1B6853F834204A
:1024A000DDE91001904705467FE0574F3F6857F838
:1024B000343010A807C89847054676E0DFF848C1D1
:1024C000DCF800C05CF8347010A80FC8B8470546A7
:1024D0006BE01498DFF830C10090DCF800C05CF8C5
:1024E000347010A80FC8B84705465EE0DDE9140156
:1024F000DFF814C1CDE90001DCF800C05CF83470ED
:1025000010A80FC8B84705464FE0DDE91412169829
:10251000DFF8F4C0CDE900120290DCF800C05CF8EE
:10252000347010A80FC8B84705463EE0DDE9142313
:10253000DDE91610DFF8D0C0CDE90023CDE90210A7
:10254000DCF800C05CF8347010A80FC8B847054626
:102550002BE0DDE91523DDE91710CDE90123CDE9F5
:1025600003101498DFF8A0C00090DCF800C05CF8FD
:10257000347010A80FC8B847054616E0DDE91623E9
:10258000DDE91810CDE90223CDE90410DDE91401DD
:10259000DFF874C0CDE90001DCF800C05CF83470ED
:1025A00010A80FC8B847054600BF00BF00F050FA9A
:1025B0009DF8180001280CD11348C07D20B9294688
:1025C0001BA0FEF749FE07E029461BA0FEF744FECC
:1025D00002E018A0FEF740FE0B4890F8EC0088B12E
:1025E0000948D0F8F0000A21B0FBF1F201FB120714
:1025F0000548D0F8F000B0FBF1F83A46414611A08A
:10260000FEF72AFE00BFCBE6E40D00200D0A25737D
:10261000280000002563000025730000256C75006C
:1026200030582558000000002C0000002900000050
:102630003D256C753B0D0A003D305825583B0D0A71
:102640000000000046756E6374696F6E2052756EEF
:102650002054696D653A25642E2531646D730D0A29
:1026600000000000F0B503461546002000220026B9
:10267000002455E01F782C2F01D104B901221F78C6
:10268000292F01D01F780FB904B94AE0002E34D1A8
:102690001F78302F02DB1F78392F11DD1F78612F53
:1026A00002DB1F78662F0BDD1F78412F02DB1F78BE
:1026B000462F05DD1F78582F02D01F78782F0CD1B8
:1026C00002B12EE01F78612F03DB1F78203F0F70CF
:1026D00001E01F780F70491C1FE01F78222F04D1E2
:1026E00002B11EE00126012417E01F78202F14D02C
:1026F0001F782C2F11D0FF2613E01F78222F00D136
:10270000002402B10DE044B11F785C2F02D15B1CA4
:10271000471CF8B21F780F70491C471CF8B25B1CAD
:10272000A8E700BF00270F702E70F0BD10B504465B
:10273000002010700BE020780870641C491C107891
:10274000401C10701078984201DB012010BD2078E9
:10275000202802D020780028EDD10020087000BF8A
:10276000F4E700002DE9FF4F85B080468946002739
:10277000002004900390012002904FF0000B0025F0
:1027800044461DE02078202816D005F07F0005285B
:1027900012DA0DB945F0800505F07F00042803D159
:1027A00020782A2800D00EE0207805F07F010DF86F
:1027B0000100681CC5B202E0852D00D103E0641C55
:1027C00020780028DED100BF8DB1002005F07F0108
:1027D0000DF8010051A1684600F062FA18B9002115
:1027E0000898017002E001210898017000254FF05F
:1027F000000A444614E0641C0AF1010000F0FF0ADC
:102800002078202802D020782A2809D1204600F0FC
:10281000D7F90646282E03D02A2E01D0CDF810A0D5
:102820002078282802D020780028E4D14446049853
:1028300010B10498401C04444FF0000A002654E0F4
:10284000207810B94FF0010A50E02078282803D1F1
:1028500016B9781CC7B213E02078292808D13EB9F0
:1028600017B1781EC7B201E04FF0010A47B93DE049
:102870002078222804D10EB9012000E0002006466D
:1028800047B9207820282FD0207889F8000009F156
:10289000010929E020782C2804D101200290681C2D
:1028A000C5B214E02078202811D0207828280ED036
:1028B0004DB9BBF1050F06DA20780DF80B000BF1CE
:1028C000010000F0FF0B0298401CC0B20290012FE3
:1028D0000AD10298022807D10298401CC0B2029087
:1028E0000398401CC0B20390641CA9E700BF039882
:1028F000012809D100200DF80B0008A1684600F05E
:10290000CFF908B9002003900799039808700020B8
:1029100089F80000504609B0BDE8F08F766F696411
:10292000000000002DE9F043B5B005460F46002435
:10293000002604E000213D488155701CC6B20A2ED5
:10294000F8DB06E06D1C287818B9012035B0BDE829
:10295000F08328782828F5D16D1C61E034AA6946F7
:102960002846FFF77FFE064635449DF8D00020B18B
:10297000012827D0FF284CD149E09DF8000000B382
:1029800033A9684600F027F906460EB10220DDE7BC
:10299000204600F04DF825490A31339A0A50A1F13A
:1029A0002400008B0121A140884320491A39088363
:1029B00004211E480155601CC4B20A2C01DD03200D
:1029C000C4E726E0684600F087F9401C00F0FF08E5
:1029D000204600F02DF815490A3100EB010949465F
:1029E000684600F06EF911481A38018B0120A040AA
:1029F000014388B20D491A3908830C4800F8048055
:102A0000601CC4B20A2C01DD03209FE701E0022014
:102A10009CE700BF2878292801D0287800B900E079
:102A20009CE700BF3C70002090E70000FE0D0020F6
:102A300002460020002105E0044B5B5C0344D8B251
:102A40004B1CD9B29142F7DB70470000FE0D00200D
:102A500010B501210D48FEF75EF9012808D10C4898
:102A6000D0F8F0004FF6FF7108440949C1F8F000B2
:102A70000648FEF74DF90649D1F8F010084404491C
:102A8000C1F8F0000846D0F8F00010BD0008004082
:102A9000E40D002010B5044604EBC40000EB041064
:102AA0000122C2EB800081B24FF47A70FEF752FA35
:102AB00001200149C87510BDE40D002010B5024683
:102AC000012000E050430B00A1F10104E1B2F9D173
:102AD00010BD000010B501210848FEF707F94FF6B8
:102AE000FF710648FEF7DBF900210448FEF7DEF926
:102AF00000200349C1F8F00010BD000000080040AC
:102B0000E40D002070B51D48008800F40040002846
:102B100033D01A480578002019494855194881686A
:102B20001748884704461CB91649C868804721E001
:102B3000134800F0DDF80546012D00D02C46CCB13D
:102B4000012C06D0022C08D0032C0AD0042C10D162
:102B50000BE00DA0FEF780FB0BE00EA0FEF77CFB68
:102B600007E00FA0FEF778FB03E010A0FEF774FB70
:102B700000BF00BF00200149088070BD9C0D0020EF
:102B8000D80E0020E40D0020BAAFCAFDB4EDCEF39C
:102B9000210D0A00B2CECAFDB4EDCEF3210D0A001C
:102BA000B2CECAFDCCABB6E0210D0A00CEB4D5D270
:102BB000B5BDC6A5C5E4B5C4BAAFCAFD210D0A00AE
:102BC0000146491C00E0491C0878202801D1002951
:102BD000F9D1087870472DE9F04307460E460025E5
:102BE0004FF00A083C46002030601FE0207839286A
:102BF00002DC207830280ADA2078462802DC2078A7
:102C0000412804DA2078582809D1012D07D12078ED
:102C1000412801DB4FF01008681CC5B205E02078A0
:102C200000B904E00120BDE8F083641CDEE700BFCA
:102C30003C46B8F1100F0FD1032D01DA0220F2E764
:102C40002078302806D16078582803D1A41CA81E0B
:102C5000C5B204E00320E6E70DB90420E3E71BE07A
:102C60000DB1681EC5B22078392806DC20783028DE
:102C700003DB2078A0F1300902E02078A0F13709C9
:102C800029464046FFF71AFF316809FB0010306003
:102C9000641C207800B900E0E2E700BF0020C2E732
:102CA00002460AE010780B78984201D00120704764
:102CB000107800B902E0521C491CF3E700BF002065
:102CC000F5E706E002780A70027802B902E0401CDB
:102CD000491CF7E700BF70470146002005E00A786D
:102CE00002B903E0421CD0B2491CF8E700BF7047AC
:102CF00010B58CB004461E230BAA03A92046FFF78B
:102D000015FD0090009810B101200CB010BD9DF889
:102D10002C00044400200B900EE040489DF82C202D
:102D200050F8221003A8FFF7BBFF00B908E09DF898
:102D30002C00401CC0B20B909DF82C000728ECD34F
:102D400000BF9DF82C00072863D2DFE800F00405DF
:102D50003C5E6564630000BF31A0FEF77DFA31A0E0
:102D6000FEF77AFA3FA0FEF777FA4EA0FEF774FA64
:102D70005CA0FEF771FA6BA0FEF76EFA79A0FEF781
:102D80006BFA86A0FEF768FA8BA0FEF765FA90A0B2
:102D9000FEF762FA94A0FEF75FFA99A0FEF75CFADC
:102DA0009EA0FEF759FAA4A0FEF756FAB0A0FEF7CF
:102DB00053FABDA0FEF750FAC8A0FEF74DFAD4A012
:102DC000FEF74AFA9AE216A0FEF746FAE0A0FEF7EE
:102DD00043FA00200B900EE0ED4800689DF82C208F
:102DE00000EBC2004168EBA0FEF736FA9DF82C001C
:102DF000401CC0B20B90E648007D9DF82C10884224
:102E0000EADC07A0FEF728FA78E205A0FEF724FA2C
:102E1000C4E171E245E219E2ECE10000A00D0020FE
:102E20000D0A00002D2D2D2D2D2D2D2D2D2D2D2D6F
:102E30002D2D2D2D2D2D2D2D2D2D2D2D55534D4140
:102E400052542056332E312D2D2D2D2D2D2D2D2D3F
:102E50002D2D2D2D2D2D2D2D2D2D2D2D2D2D2D20AF
:102E60000D0A00002020202055534D415254CAC75E
:102E7000D3C9414C49454E54454BBFAAB7A2B5C42E
:102E8000D2BBB8F6C1E9C7C9B5C4B4AEBFDAB5F7AD
:102E9000CAD4BBA5BDBBD7E9BCFE2CCDA8B9FD20CB
:102EA0000D0A0000CBFC2CC4E3BFC9D2D4CDA8B915
:102EB000FDB4AEBFDAD6FACAD6B5F7D3C3B3CCD019
:102EC000F2C0EFC3E6B5C4C8CEBACEBAAFCAFD2CC5
:102ED000B2A2D6B4D0D02ED2F2B4CB2CC4E3BFC9A8
:102EE0000D0A0000D2D4CBE6D2E2B8FCB8C4BAAF27
:102EF000CAFDB5C4CAE4C8EBB2CECAFD28D6A7B392
:102F0000D6CAFDD7D62831302F3136BDF8D6C629DE
:102F1000A1A2D7D6B7FBB4AEA1A2BAAFCAFDC8EB87
:102F20000D0A0000BFDAB5D8D6B7B5C8D7F7CEAA14
:102F3000B2CECAFD292CB5A5B8F6BAAFCAFDD7EEF8
:102F4000B6E0D6A7B3D63130B8F6CAE4C8EBB2CEF5
:102F5000CAFD2CB2A2D6A7B3D6BAAFCAFDB7B52068
:102F60000D0A0000BBD8D6B5CFD4CABE2ED0C2D46D
:102F7000F6B2CECAFDCFD4CABEBDF8D6C6C9E8D611
:102F8000C3B9A6C4DC2CD0C2D4F6BDF8D6C6D7AA25
:102F9000BBBBB9A6C4DC2E0D0A000000BCBCCAF540
:102FA000D6A7B3D63A7777772E6F70656E6564765D
:102FB0002E636F6D0D0A000055534D415254D3D00E
:102FC00037B8F6CFB5CDB3C3FCC1EE3A0D0A000059
:102FD0003F3A202020202020BBF1C8A1B0EFD6FA34
:102FE000D0C5CFA20D0A000068656C703A20202081
:102FF000BBF1C8A1B0EFD6FAD0C5CFA20D0A000030
:103000006C6973743A202020BFC9D3C3B5C4BAAF6A
:10301000CAFDC1D0B1ED0D0A0A00000069643A2072
:1030200020202020BFC9D3C3BAAFCAFDB5C44944CC
:10303000C1D0B1ED0D0A0A006865783A2020202041
:10304000B2CECAFD3136BDF8D6C6CFD4CABE2CBA70
:10305000F3B8FABFD5B8F12BCAFDD7D6BCB4D6B4F5
:10306000D0D0BDF8D6C6D7AABBBB0D0A0A00000057
:103070006465633A20202020B2CECAFD3130BDF80D
:10308000D6C6CFD4CABE2CBAF3B8FABFD5B8F12B86
:10309000CAFDD7D6BCB4D6B4D0D0BDF8D6C6D7AA50
:1030A000BBBB0D0A0A00000072756E74696D653A4B
:1030B000312CBFAAC6F4BAAFCAFDD4CBD0D0BCC69F
:1030C000CAB13B302CB9D8B1D5BAAFCAFDD4CBD038
:1030D000D0BCC6CAB13B0D0A0A000000C7EBB0B4B1
:1030E000D5D5B3CCD0F2B1E0D0B4B8F1CABDCAE402
:1030F000C8EBBAAFCAFDC3FBBCB0B2CECAFDB2A228
:10310000D2D4BBD8B3B5BCFCBDE1CAF82E0D0A00C1
:103110002D2D2D2D2D2D2D2D2D2D2D2D2D2D2D2DDF
:103120002D2D2D2D2D2D2D2D2D2D414C49454E5420
:10313000454B2D2D2D2D2D2D2D2D2D2D2D2D2D2D89
:103140002D2D2D2D2D2D2D2D2D2D2D200D0A000059
:103150002D2D2D2D2D2D2D2D2D2D2D2D2D2D2D2D9F
:103160002D2D2D2D2D2D2D2D2DBAAFCAFDC7E5B539
:10317000A52D2D2D2D2D2D2D2D2D2D2D2D2D2D2D07
:103180002D2D2D2D2D2D2D2D2D2D2D2D200D0A00EC
:10319000E40D002025730D0A0000000059A0FEF781
:1031A0005BF800200B901AE0664909689DF82C2016
:1031B00001EBC20101AB02AA486803A9FFF7D2FAEA
:1031C000604800689DF82C1050F8312003A95EA0DB
:1031D000FEF742F89DF82C00401CC0B20B905948F5
:1031E000007D9DF82C108842DEDCAFF2CC30FEF77B
:1031F00033F883E0AFF2D830FEF72EF80BAA03A91C
:103200002046FFF72FFA9DF82C00C8B9694603A89D
:10321000FFF7E1FC0B909DF82C0020B94FA000991E
:10322000FEF71AF80EE09DF82C00042801D00220C9
:103230006BE54DA0FEF710F801204249C87501E08A
:10324000022062E547A0FEF707F857E045A0FEF729
:1032500003F80BAA03A92046FFF704FA9DF82C00F7
:10326000C8B9694603A8FFF7B6FC0B909DF82C007F
:1032700020B942A00099FDF7EFFF0EE09DF82C0069
:10328000042801D0022040E53FA0FDF7E5FF002023
:103290002C49C87501E0022037E532A0FDF7DCFFBC
:1032A0002CE030A0FDF7D8FF0BAA03A92046FFF7BA
:1032B000D9F99DF82C00C8B9694603A8FFF78BFC23
:1032C0000B909DF82C0078B91E49009881F8EC000D
:1032D000084690F8EC0018B130A0FDF7BDFF07E0FC
:1032E00035A0FDF7B9FF03E002200EE502200CE552
:1032F0001CA0FDF7B1FF01E0012006E500BF0020A2
:1033000003E500002D2D2D2D2D2D2D2D2D2D2D2DB9
:103310002D2D2D2D2D2D2D2D2D2D2D2D2DBAAFCA31
:10332000FD204944202D2D2D2D2D2D2D2D2D2D2DE4
:103330002D2D2D2D2D2D2D2D2D2D2D2D2D2D2D2DBD
:10334000200D0A00E40D00202573206964206973B4
:103350003A0D0A3058253038580D0A004845583A79
:10336000305825580D0A00003136BDF8D6C6B2CE09
:10337000CAFDCFD4CABE210D0A0000004445433A1D
:10338000256C750D0A0000003130BDF8D6C6B2CEEE
:10339000CAFDCFD4CABE210D0A00000052756E20AE
:1033A00054696D652043616C63756C6174696F6EFF
:1033B000204F4E0D0A00000052756E2054696D6555
:1033C0002043616C63756C6174696F6E204F464673
:1033D0000D0A0000016070473F0000006465630053
:1033E0006964000072756E74696D650068656C7063
:1033F000000000006C6973740000000068657800CC
:10340000766F6964206C65645F6F7574707574287D
:10341000753820636D642900766F6964207772695E
:1034200074655F616464722875333220616464720C
:103430002C7533322076616C290000007533322000
:10344000726561645F6164647228753332206164FF
:1034500064722900766F69642064656C61795F6DC0
:103460007328753136206E6D73290000766F69649C
:103470002064656C61795F757328753332206E75D1
:1034800073290000A434000800000020D80E0000BA
:103490002E020008E03C0008D80E0020C8040000FE
:1034A00088120008815A01045B3075102C02030455
:1034B00004100906070809020406087CA24A042C25
:1034C000591891422F1A0702111B147F021116245A
:1034D0002A7F2A1216626408132326364955225081
:1034E000430503341C22411C41221C2A15083E08B6
:1034F000141A0806320823A0602A0801211A600B5A
:1035000011162010080402263E5149453E1C427FF8
:1035100040051561514946162141454B3116181495
:10352000127F10162745454539163C4A4949301C3B
:103530000171096216364949493626064949291E4C
:103540004336362A56062B0814782A1401297E138E
:10355000140816020151090616324959513E167CCB
:103560001211127C3A7F3C163E414141221A7F05DE
:103570003A1C1212411E7F09090901181449497A9F
:103580001A7FA11A7F421A7F4E1E2040413F01122E
:10359000295B1B7F400111167F020C027F3E7F04D6
:1035A00008107F483A3E3C1A060C1C51215E0C1450
:1035B0001929461A465412311601017F01011A3F9A
:1035C00035123F1E1F2040201F0C1A380C166314A2
:1035D00008146316070870080719EF234543198B71
:1035E000211B552A0219781A417D16040201020492
:1035F00029712240290B11162054545478167F4803
:103600004444382E38444444200613487F1A38185E
:10361000121816087E0901021D18A4A4A4E42508A6
:103620000404781B447D3B1D4080847D5F3410285A
:10363000441B417F121C7C04181E3A7C242948122A
:103640003816FC242424181A18053AFC1812081AF3
:103650004854122016043F444020163C4040207C31
:103660001A1CC01A1C0C1430403C2B44284F161C4A
:10367000A0A0A07C3F4464544C441401011372F890
:103680004333301C100C0603912C40C0780319679B
:103690002A0403212D7088FC0829261820FF211EEA
:1036A00014F008F033E0184D211C031E113388700C
:1036B000000C101E2123241927211010160E45E09E
:1036C0001804021C071820EA3D020418E0692C20A7
:1036D000180707174080F08040403F0202010F01A9
:1036E000022842F01D0101011F04912B80B066B138
:1036F000191D2901913A30CE492C146018043C6000
:1037000018061D1EE010080810721F0F1020201050
:103710000FF05310F83620203F20203C700808C2DC
:103720001E3028242221441E3008888848082E187C
:1037300020202011CC3BC0203227070424243F2422
:103740001AF8202308084B19212036E01088881821
:103750004B0F11101E380808C8382021523F1A702C
:103760002E29608F1C222121221C90111D31222222
:1037700011901961CAC0C26A80C659081C40201045
:1037800050170102040810204A4001114A04012187
:1037900019152A403219251B0402F21B7048D13A30
:1037A000F0501A360F1EC030C828E87028080718D5
:1037B000272423140B6F2A387E280D203C23020275
:1037C00027382008F888889F4B203FF01BC0303FE7
:1037D0001B083830191019781B08F80F19403920C8
:1037E0001B100F103E8888E8081010AC232018101A
:1037F000112A035E2940223829402C221E0240193A
:10380000A41809F808203F21010121252A0852297E
:103810008129424149112EC08080807F0E2FF88877
:10382000C0281808501C0126382F2940292F29802C
:103830001B20301012F81AF81413203F1902292007
:103840004B30C0601A2074123F4BE010B06B0F1069
:10385000B029D01AF0301980220179203F18242491
:1038600038504FC04C888870C0140C30204B708882
:10387000C11738202121221C3A189F4A188239A0EA
:1038800049D0112A1F90121F240878881BC83815A8
:103890001C07380E60191A1AF8201114033C07147B
:1038A000073C034814081868808068180820302CEA
:1038B00003032C30200838C82F5950298F29102F86
:1038C000203826212020681145FE020202257F4073
:1038D00040401A0CE0611C0106380B191D42FE190C
:1038E0001D527F1A04120211045A80011930D91D89
:1038F000391621180819242222223F20AB390F1132
:103900005F3F112020110E21311A0E104B20111093
:103910004B88F8102A10B359401A1F3F2B22130F5F
:1039200016F0888888181A20D029D1497A21176B77
:1039300094949493603960190F4C203F21F3548084
:103940009898793059121AC02719D1193039311F76
:10395000203F24022D30212A0812893069D7294BB3
:103960002903190BC96079A019BF2B201FDD390F5E
:103970009C80FFA1E0191229D03BA0FF0C395019FF
:103980004112208A01C01B3324012A190F3AE04159
:103990003952290F392349603C103F202C29053F1B
:1039A000010E3008060170291038080F300C030C86
:1039B000300F2C49A14E312E0E31200C29621D8171
:1039C0008E70183059D1215721302C22213055804A
:1039D0007C0202443F404072FF39083C02027C8F67
:1039E0005440403F800806010102020404280908EF
:1039F00008088868180FE8081C080C0828700C21B3
:103A0000110D41817F01050931611B80604B4B2005
:103A100040D640080804020140807F3301061A1096
:103A2000011CF010FF042C1018100F180D08040BC7
:103A30000808FF08080B0408185049424A7F3D292E
:103A40000B164020100C033F030C102040C0AF1891
:103A50000BFCFC7C603038188C8C84D8201003035D
:103A6000013F7F61456D6D3D1931313020100FA848
:103A7000A8ECECFCBCBEB6949494B48484101010F2
:103A80001C1F3F7D7E5A52524242763F3F06101025
:103A9000080C04C4FCFC1C0C8C8C8C0C0C08083D21
:103AA00020202021011E313F3F2E2040411FF8F8E9
:103AB00018F8FCFC5E31180B212323233F3F203FE5
:103AC0003F3F0A2A2230280820A0E0F83C2E260A90
:103AD0001930101060787E1F07060C0C1818303053
:103AE000306040200FE0E46CFCB8B6BE9C909C9E19
:103AF000BEF6E0A00F1313111150585C7E7F0B0926
:103B0000091919122C1244033544281EE0F03828F4
:103B10006C01156868F080180AC06020F0780CE429
:103B20003C706C6CE070281911100DC0F0D068CC9E
:103B3000DCEC34ECE8F0E0000B44E030F83C5414EA
:103B40005454FC38100C070F090F1B190F0F0907ED
:103B500003100D0307060F1B1008070404030110D0
:103B60000C070B090F13190F09090701081B79032B
:103B70000D0B1B180F0F0A0B06030101070C0B0995
:103B80001D0C090B0403FFFF03011AFF01E11EC016
:103B9000E0F0F8FC012CFEFEFE070517F8F0E0C08F
:103BA0002D80E0F8F8271AFE442907062FFCF8F8C4
:103BB000E080F9802D021F3F7F1589010416BF1F89
:103BC00007480901071F1FBFFF7F7F300008137FD1
:103BD0007F3F7FBF47811AFCA1199E32F04AE0B1B6
:103BE0000B13FC3880180F40C02020283090680844
:103BF000070303010304190111100A0101FF0284E4
:103C0000181820501430604049E018094060B0484E
:103C100020FC0E0622C1480A18BF630F0C1814308E
:103C2000400E3A7E6B13F8F0280B01030707078359
:103C30008180808009195D2DC0F0F0F801CA608094
:103C400061F3C1180410FF7003120304112828A7A0
:103C5000F3D13E1A01C61CC1E0F0F52968390139DB
:103C6000922AC3871B0703BD2913BAC001CBCAC759
:103C700010FBC0C0114901FBC3C6121902F9144E52
:103C8000C7C7CFCFC701190C590E7928C9FE13D861
:103C9000331B08EC041AF4041AE0041AFC041ADCBE
:103CA000041AE40413B11F14083C341B08D50C1A81
:103CB000180813ED191B08540813391A1B086C084F
:103CC00013A91B1208190813BC0D1420952A1408F7
:103CD000E122140891231C08052B042119EC01DAB8
:0400000508000131BD
:00000001FF
