:020000040800F2
:10000000A8130020450100086106000885040008C7
:100010005D060008850200080F13000800000000BC
:10002000000000000000000000000000F90B0008C4
:100030008902000800000000890A00080D0D000870
:100040005F0100085F0100085F0100085F01000810
:100050005F0100085F0100085F0100080D03000850
:100060005F0100085F0100085F0100085F010008F0
:100070005F0100085F0100085F0100085F010008E0
:100080005F0100085F0100085F0100085F010008D0
:100090005F0100085F0100085F0100085F010008C0
:1000A0005F0100085F0100085F0100085F010008B0
:1000B0005F0100085F010008710D00085F01000882
:1000C0005F0100085F0100085F0100085F01000890
:1000D0005F0100086D100008E11000085F010008D2
:1000E0008D0200085F0100085F0100085F01000841
:1000F0005F0100085F0100085F0100085F01000860
:100100005F0100085F0100085F0100085F0100084F
:100110005F0100085F0100085F0100085F0100083F
:100120005F0100085F0100085F0100085F0100082F
:10013000DFF80CD000F04AF800480047B91D00086D
:10014000A81300200648804706480047FEE7FEE760
:10015000FEE7FEE7FEE7FEE7FEE7FEE7FEE7FEE777
:10016000110D0008310100082DE9F05F054600205F
:1001700092469B4688460646814640241BE0284618
:1001800041464746224600F042F853465A46C01AB6
:10019000914110D311461846224600F029F82D1A35
:1001A00067EB01084F4622460120002100F020F8AD
:1001B00017EB00094E41201EA4F10104DFDC484684
:1001C00031462A464346BDE8F09F0000064C074DE5
:1001D00006E0E06840F0010394E807009847103417
:1001E000AC42F6D3FFF7A8FF8C3F0008AC3F0008F5
:1001F000202A04DB203A00FA02F1002070479140E7
:10020000C2F1200320FA03F3194390407047202ADB
:1002100004DB203A21FA02F00021704721FA02F3B0
:10022000D040C2F12002914008431946704770B592
:100230008C1810F8015B15F0070301D110F8013B91
:100240002A1106D110F8012B03E010F8016B01F818
:10025000016B5B1EF9D12B0705D40023521E0DD470
:1002600001F8013BFAE710F8013BCB1A921C03E0BE
:1002700013F8015B01F8015B521EF9D5A142D8D3F6
:10028000002070BD00BFFEE77047000010B50A20D7
:1002900001F012FC4FF40041184800F0E6F830B9C4
:1002A000102317A20621482000F06AFB18E04FF443
:1002B0008041124800F0D9F830B9102311A206216C
:1002C000482000F05DFB0BE04FF400510B4800F0BC
:1002D000CCF828B910230CA20621482000F050FBCE
:1002E0004FF4005000F030F84FF4804000F02CF84C
:1002F0004FF4004000F028F810BD0000001001404D
:1003000033000000320000003100000010B50A2068
:1003100001F0D2FB0221094800F0A7F850B900F023
:10032000D9F90A2001F0C8FB102305A206212220DA
:1003300000F026FB022000F007F810BD0008014085
:100340004B65793A200000000149086070470000C1
:10035000140401402DE9F04102460025002600204A
:1003600000230024002791F803C00CF00F0591F83A
:1003700003C00CF0100CBCF1000F03D091F802C0C8
:100380004CEA050591F800C0BCF1000F31D01468AB
:1003900000202BE04FF0010C0CFA00F3B1F800C084
:1003A0000CEA03069E4220D183004FF00F0C0CFA9A
:1003B00003F7BC4305FA03FC4CEA040491F803C0BC
:1003C000BCF1280F06D14FF0010C0CFA00FCC2F86A
:1003D00014C00AE091F803C0BCF1480F05D14FF0FA
:1003E000010C0CFA00FCC2F810C0401C0828D1D344
:1003F0001460B1F800C0BCF1FF0F34DD5468002078
:100400002EE000F1080C4FF0010808FA0CF3B1F8E7
:1004100000C00CEA03069E4221D183004FF00F0C6E
:100420000CFA03F7BC4305FA03FC4CEA040491F808
:1004300003C0BCF1280F05D100F1080C08FA0CF834
:10044000C2F8148091F803C0BCF1480F07D100F145
:10045000080C4FF0010808FA0CF8C2F81080401C94
:100460000828CED35460BDE8F0810246002093688E
:100470000B400BB1012000E0002070474161704744
:100480000161704700BFFEE708B50121082000F0B8
:100490000DFB4FF44060ADF8000010208DF8030014
:1004A00003208DF8020069460448FFF753FF4FF41C
:1004B00040610248FFF7E4FF08BD0000000C014066
:1004C00070B504461548006820F470401349086070
:1004D0000846006840F44050086000201049086059
:1004E000002517E0E0090E49091D08606006040EAA
:1004F000022001F007FB01200A49C1F8A8010220EF
:1005000001F000FB002006490860022001F0FAFA21
:10051000681CC5B2082DE5DB70BD0000040C01406D
:10052000A88121420080214210B50F48006820F4C4
:1005300070400D4908600846006840F4405008606B
:1005400001200A4908600A49C1F8A801042001F005
:10055000D9FA002005490860042001F0D3FA0020F0
:100560000349C1F8A80110BD040C0140AC8121422F
:100570000080214210B50F48006820F470400D49FA
:1005800008600846006840F44050086000200A49AE
:1005900008600A49C1F8AC01042001F0B3FA012057
:1005A000054908600549C1F8AC01042001F0AAFA28
:1005B00010BD0000040C0140A881214200802142AE
:1005C00010B500241448006820F4704012490860F7
:1005D0000846006840F40040086001200F490860A8
:1005E00001F090FA01200E49C1F8A80101F08AFA41
:1005F00007E0601CC4B2FA2C03DDFFF7BBFF01204B
:1006000010BD0648803800680028F2D10349091F50
:10061000086000BFF4E70000040C0140AC812142F7
:100620000080214208B501210C2000F03FFA4FF470
:10063000C850ADF8000010208DF8030003208DF89D
:10064000020069460448FFF785FE4FF4C85102488E
:10065000FFF716FF08BD00000008014000BFFEE7DD
:100660007047000070B5002100230F22C47804B346
:10067000154C246804F4E064C4F5E064210AC1F177
:100680000403CA40447804FA03F1847814402143F7
:1006900009010E4C0678A155047804F01F050124C9
:1006A000AC4005786D11AD0005F1E025C5F80041BD
:1006B00009E0047804F01F050124AC40044D0678DD
:1006C000761145F8264070BD0CED00E000E400E036
:1006D00080E100E070B5002415E004F1B001C8B27B
:1006E00000F05EFA022000F05BFA102000F058FAE9
:1006F000002504E0002000F069FA681CC5B2802DD6
:10070000F8DB601CC4B2082CE7DB70BD10B500211B
:10071000AE2000F052F90021084600F04EF9002109
:10072000102000F04AF90021402000F046F9002195
:10073000B02000F042F90021812000F03EF90021B4
:10074000FF2000F03AF90021A12000F036F9002145
:10075000A62000F032F90021A82000F02EF9002197
:100760003F2000F02AF90021C82000F026F90021DE
:10077000D32000F022F90021084600F01EF90021E4
:10078000D52000F01AF90021802000F016F9002190
:10079000D82000F012F90021052000F00EF9002108
:1007A000D92000F00AF90021F12000F006F900211B
:1007B000DA2000F002F90021122000F0FEF80021FA
:1007C000DB2000F0FAF80021302000F0F6F80021DC
:1007D0008D2000F0F2F80021142000F0EEF8002146
:1007E000AF2000F0EAF810BD70B504460D4605F1E3
:1007F000B001C8B200F0D4F9102141EA141000F0A1
:10080000CFF904F00F0000F0CBF970BD2DE9F047EF
:1008100007460E469046994600250024A8F1200080
:10082000C5B27F2F02DD0027B01CC6B2B9F1100F90
:1008300022D131463846FFF7D7FF002407E004EB0A
:100840000511174A505C00F0C1F9601CC4B2082CB5
:10085000F5DB701CC1B23846FFF7C6FF002408E084
:1008600004EB051108310E4A505C00F0AFF9601C32
:10087000C4B2082CF4DB11E031463846FFF7B4FF70
:10088000002409E005EB4501064A02EB4101085D41
:1008900000F09CF9601CC4B2062CF3DBBDE8F087C5
:1008A00068020020400000202DE9FC4107468846F0
:1008B00015461E46002430A103C9CDE90001062ECD
:1008C00051D2DFE806F050413223130342F2107098
:1008D00095FBF0F00A2190FBF1F201FB12003030A1
:1008E000C0B20DF80400601CC4B200BF4FF47A70AF
:1008F00095FBF0F00A2190FBF1F201FB1200303081
:10090000C0B20DF80400601CC4B200BF642095FBA7
:10091000F0F00A2190FBF1F201FB12003030C0B27E
:100920000DF80400601CC4B200BF0A2095FBF0F073
:100930000A2190FBF1F201FB12003030C0B20DF839
:100940000400601CC4B200BF0A2095FBF0F100FB5C
:1009500011503030C0B20DF80400601CC4B2002049
:100960000DF8040000BF00BF10236A464146384618
:1009700000F006F8BDE8FC81303030303030000047
:100980002DE9F04104460F461546984600260FE033
:10099000AA5D434639462046FFF738FF04F10800B8
:1009A000C4B2782C02DD0024B81CC7B2701CC6B2D9
:1009B000A85D0028ECD1BDE8F08170B504460D4675
:1009C00025B1E1B2402000F006F803E0E1B20020DA
:1009D00000F001F870BD70B505460C46FFF7A4FDA8
:1009E0007820FFF76DFDFFF7EBFD2846FFF768FD68
:1009F000FFF7E6FD2046FFF763FDFFF7E1FDFFF798
:100A0000B9FD70BD08B50121082000F04FF80120A4
:100A1000ADF8000048208DF8030069460548FFF74F
:100A200099FCB020ADF8000069460348FFF792FC3E
:100A300008BD0000000C01400008014010B5002472
:100A400001210F48FFF711FD08B9601CC4B28021D5
:100A50000C48FFF70AFD08B9A01CC4B220210948C0
:100A6000FFF703FD08B9201DC4B210210548FFF7A8
:100A7000FCFC10B904F10800C4B2204610BD00000F
:100A8000000C0140000801407047000029B1064AEF
:100A9000D2690243044BDA6104E0034AD26982431B
:100AA000014BDA61704700000010024029B1064A8C
:100AB00092690243044B9A6104E0034A92698243BB
:100AC000014B9A61704700000010024030B50021D0
:100AD0000022002400232D4D6D6805F00C0121B18A
:100AE000042905D0082923D105E0294D056022E01D
:100AF000274D05601FE0254D6D6805F47012234DEC
:100B00006D6805F48034022505EB92421CB9214D35
:100B1000554305600BE01D4D6D6805F400351DB1B2
:100B20001C4D5543056002E0194D5543056002E038
:100B3000174D056000BF00BF144D6D6805F0F00152
:100B40000909154D6B5C0568DD4045600F4D6D680A
:100B500005F4E061090A104D6B5C4568DD40856075
:100B60000A4D6D6805F46051C90A0B4D6B5C456810
:100B7000DD40C560054D6D6805F44041890B074DAA
:100B80006B5CC568B5FBF3F5056130BD0010024034
:100B900000127A0000093D00160000202600002007
:100BA00010B50446FFF7C0FC7820FFF789FCFFF77B
:100BB00007FD0020FFF784FCFFF702FD2046FFF74A
:100BC0007FFCFFF7FDFCFFF7D5FC10BD10B5044618
:100BD000FFF7AAFC7820FFF773FCFFF7F1FC402039
:100BE000FFF76EFCFFF7ECFC2046FFF769FCFFF710
:100BF000E7FCFFF7BFFC10BD704710B500F002F82E
:100C000010BD00000CB50020019000903348006832
:100C100040F480303149086000BF3048006800F47B
:100C2000003000900198401C0190009818B901987C
:100C3000B0F5A06FF1D12948006800F4003010B180
:100C40000120009001E0002000900098012843D18D
:100C50002348006840F010002149086008460068F9
:100C600020F0030008600846006840F002000860B9
:100C70001A48406819494860084640684860084674
:100C8000406840F4806048600846406820F47C106A
:100C900048600846406840F4E8104860084600682C
:100CA00040F08070086000BF0C48006800F00070E1
:100CB0000028F9D00948406820F00300074948603F
:100CC0000846406840F00200486000BF03484068A2
:100CD00000F00C000828F9D10CBD00000010024003
:100CE00000200240042808D14FF0E021096941F0BA
:100CF00004014FF0E022116107E04FF0E0210969A3
:100D000021F004014FF0E0221161704770470000AC
:100D100010B51348006840F001001149086008460A
:100D20004068104908400E494860084600680E496E
:100D300008400B4908600846006820F480200860DD
:100D40000846406820F4FE0048604FF41F008860A9
:100D5000FFF753FF4FF000600449086010BD00002A
:100D6000001002400000FFF8FFFFF6FE08ED00E073
:100D700010B501210A4800F035F801280AD10949C7
:100D8000086980470021064800F0EEF86421044815
:100D900000F0E3F80121024800F009F810BD00005E
:100DA00000080040E80D0020CA4302827047CA4391
:100DB0000282704721B1028842F00102028004E001
:100DC00002884FF6FE731A40028070470146888CF5
:100DD000704702460020138A0B400BB1012000E04F
:100DE0000020704730B50246002000230024158AF9
:100DF00005EA0103958905EA010413B10CB101204C
:100E000000E0002030BD1AB183890B43838102E0EA
:100E100083898B438381704770B5002400220023AF
:100E2000058C4FF6FE7635400584028C8388048B52
:100E30004FF68F752C40B51E2C400D882C43751E27
:100E40002A400D892A434D882A43144DA8420BD0CD
:100E5000134DA84208D0134DA84205D0124DA84208
:100E600002D0124DA84213D14FF6F7752A404D8992
:100E70002A434FF6FB752A408D882A434FF6FF65BB
:100E80002B404FF6FF552B408D892B43CD892B43AB
:100E900083800483CD888586028470BD002C014048
:100EA000003401400040014000440140004801403E
:100EB0000A460021018B4FF6F77319401143018355
:100EC0007047000070B5002200230024058C4EF608
:100ED000FF7635400584038C8488828B48F6FF7545
:100EE0002A404FF6FF452A400D884FF6FF7606EA66
:100EF00005252A434DF6FF752B400D8906EA053579
:100F00002B434D8806EA05352B430B4DA84202D0F2
:100F10000A4DA84208D14BF6FF752C408D894FF63B
:100F2000FF7606EA85152C4384808283CD88A0F85D
:100F30004050038470BD0000002C0140003401408B
:100F40000A460021818B4FF2FF7319404FF6FF7361
:100F500003EA0223194381837047818570478186A4
:100F60007047A0F8401070478184704700220288C3
:100F70001D4B98420ED01D4B98420BD0B0F1804FC4
:100F800008D01B4B984205D01A4B984202D01A4BFE
:100F9000984204D14FF68F731A404B881A43174B6F
:100FA000984207D0164B984204D04FF6FF431A40A0
:100FB000CB881A4302808B8883850B8803850A4B74
:100FC00098420BD0094B984208D00E4B984205D05E
:100FD0000D4B984202D00D4B984201D10B7A0386FB
:100FE0000123838270470000002C0140003401403F
:100FF0000004004000080040000C004000100040C9
:1010000000140040004001400044014000480140FD
:101010007FB505460C4601210420FFF737FDADF8EA
:101020000850ADF804400020ADF80A00ADF8060005
:1010300001A90D48FFF79AFF012241210A48FFF755
:10104000E2FE1E208DF8000003208DF801008DF8CF
:10105000020001208DF803006846FFF703FB012121
:101060000148FFF7A7FE7FBD0008004010B540F221
:101070002551174800F08AF848B3154800F042F9A6
:10108000C4B21448008800F4004000BB552C0DD1B8
:101090001048008840F400400E4908800E488178CE
:1010A000407801EB00200D49088010E009480088D5
:1010B000C0F30D0008490C5406480088401C05493F
:1010C000088008460088C72801DD0020088010BD80
:1010D00000380140A00D0020DC0E0020120000208E
:1010E00010B540F225511F4800F050F8002838D0C4
:1010F0001C4800F007F9C4B21B48008800F4004007
:1011000078BB552C1CD119480078AA2814D1164850
:10111000008840F4004014490880144881784078E1
:1011200001EB0020124908800846008847F2305140
:1011300008440F49088014E000200B49088010E0A3
:1011400009480088C0F30D0008490C54064800887F
:10115000401C0549088008460088C72801DD00209A
:10116000088010BD00440040A00D0020DC0E0020CF
:101170001200002021B1828942F40052828104E0F1
:1011800082894DF6FF731A408281704770B502461E
:10119000002400230025002040F66A16B14200D149
:1011A00000BFC1F3421501F01F03012606FA03F345
:1011B000012D02D19689334006E0022D02D1168A14
:1011C000334001E0968A33400C12012606FA04F4FB
:1011D0001688344013B10CB1012000E0002070BD2E
:1011E000F0B50346002400260025002040F66A17CB
:1011F000B94200D100BF1846C1F3421401F01F06E6
:10120000012707FA06F5012C01D10C3004E0022C6D
:1012100001D1103000E014301AB107682F43076085
:1012200002E00768AF430760F0BD00002DE9F0471A
:1012300086B005460E460024A24600BFA146002700
:10124000B08900B100BF2F462C8A4CF6FF700440D5
:10125000F08804432C82AC894EF6F3100440B08829
:1012600031890843718908430443AC81AC8A4FF645
:10127000FF400440B0890443AC8201A8FFF726FC7C
:101280001F48874202D1DDF810A001E0DDF80CA074
:10129000A88900F4004040B10AEBCA0000EB0A1034
:1012A00031684900B0FBF1F807E00AEBCA0000EB37
:1012B0000A1031688900B0FBF1F86420B8FBF0F047
:1012C00004012009642101FB1089A88900F4004071
:1012D00040B1322000EBC900B0FBF1F000F0070094
:1012E000044308E0322000EB09106421B0FBF1F068
:1012F00000F00F0004432C8106B0BDE8F087000029
:101300000038014001468888C0F30800704700BFDC
:10131000FEE700000FB4054B10B503A9044A02987C
:1013200000F018F810BC5DF814FB0000D91C000890
:101330009C0D002002E008C8121F08C1002AFAD143
:1013400070477047002001E001C1121F002AFBD145
:10135000704700002DE9FF4F8DB00F46054600266F
:1013600006E025280BD0DDE90F1290476D1C761C96
:1013700028780028F5D111B03046BDE8F08F002460
:10138000A246A1460122EC4900E0044315F8013FC2
:10139000203B02FA03F00842F7D128782A2810D01F
:1013A0006FF02F022878A0F13001092914D80AEB38
:1013B0008A0102EB410144F0020400EB010A6D1CBA
:1013C000F0E701CF5FEA000A03D544F40054CAF104
:1013D000000A44F002046D1C28782E2817D115F855
:1013E000010F44F004042A280ED06FF02F02287851
:1013F000A0F1300109290AD809EB890102EB41016A
:1014000000EB01096D1CF2E757F8049B6D1C28786E
:101410006C280FD006DC4C2817D068280DD06A281D
:1014200014D104E0742810D07A280FD10DE044F4D0
:1014300000140AE044F4801401E044F44014697894
:10144000814202D104F580146D1C6D1C2A786E2A2D
:101450001FD00CDC632A31D004DC002A8BD0582A40
:1014600011D1A3E0642A68D0692A0CD165E0732AFF
:101470002ED004DC6F2A73D0702A04D19BE0752A29
:101480006FD0782A6ED01046DDE90F129047761C97
:1014900050E1C4F30250022806D0032809D00428E2
:1014A00001CF09D0066045E101CFF117C0E9006125
:1014B00040E101CF06803DE106703BE117F8040BE7
:1014C0008DF8000000208DF80100EB46012003E0BC
:1014D00057F804BB4FF0FF3061074FF0000102D412
:1014E0000DE008F10101884649450FDA8045F8DB37
:1014F0001BF808100029F4D108E008F10101884622
:101500008142FADB1BF808100029F6D1DDE90F2330
:10151000AAEB08008146214600F036F9304400EB82
:10152000080604E0DDE90F121BF8010B9047B8F143
:101530000108F7D221464846F7E00A21C4F30253D6
:101540004FF0000B0891022B04D001CFC117032BE1
:1015500009D00AE0FF1D27F00707F7E8020108E0BD
:1015600032E01FE020E000B2C117042B01D140B2ED
:10157000C117031E71F1000307DA4FF0000CD0EB26
:101580000C006CEB01012D2302E0230504D52B2375
:101590008DF82430012303E0E30701D02023F7E78F
:1015A000984658E00A2110E010210EE010204FF07C
:1015B000000B08900CE010214FF0000B44F00404E5
:1015C0004FF00809089103E008214FF0000B089143
:1015D000C4F30253022B04D001CF0021032B06D009
:1015E00006E0FF1D27F00707F7E8020103E080B2DD
:1015F000042B00D1C0B24FF0000823072BD5702A6E
:1016000007D0DDF820C08CF0100C5CEA0B0C05D084
:101610000EE040238DF82430012308E050EA010356
:1016200006D030238DF824308DF8252002239846EB
:10163000DDF820C08CF0080C5CEA0B0C0BD150EAF2
:10164000010301D1630706D530238DF824304FF014
:101650000108A9F10109582A04D038A20B9208AA5E
:101660000A920BE03AA2F9E75B46089AFEF77CFD86
:101670000B9B9B5C0A9A521E0A92137050EA01025D
:10168000F2D10A98ADEB000000F1200B600702D503
:1016900024F4803401E04FF00109D94502DDA9EBC3
:1016A0000B0000E0002000EB0B0141440890AAEB86
:1016B000010AE00306D4DDE90F232146504600F07D
:1016C00063F806444FF0000908E009A911F8090081
:1016D000DDE90F12904709F10109761CC145F4DBE1
:1016E000E0030CD5DDE90F232146504600F04CF80D
:1016F000064404E0DDE90F1230209047761C08997B
:10170000481E08900029F5DC08E00A980A9900783C
:10171000491C0A91DDE90F129047761CBBF10001CC
:10172000ABF1010BF1DC21465046DDE90F2300F05F
:1017300019F806446D1C1BE60928010030313233CC
:1017400034353637383961626364656600000000FD
:1017500030313233343536373839414243444546E7
:10176000000000002DE9F041044600251E46174602
:10177000880404D405E039462020B0476D1C641E5F
:10178000F9D52846BDE8F0812DE9F0410446002551
:101790001E469046C80301D5302700E02027880464
:1017A00004D505E041463846B0476D1C641EF9D5A6
:1017B0002846BDE8F081000070B505461B4800884A
:1017C00000F4004048B1002018490880052318485B
:1017D000028803213020FFF767F8FFF72FF904464E
:1017E000A5F1FA0012490988884201DC022C06D1D1
:1017F000122000F01FF8142000F05EF914E00C48ED
:10180000018805F1FA00814201DC032C06D1142085
:1018100000F010F8142000F04FF905E0052000F06A
:1018200009F8142000F048F970BD0000A00D002058
:101830001200002010B50446062C77D005DC26D215
:10184000DFE804F0250C2678405A072C6FD0082CCE
:101850006ED0122C6DD0142C19D1E8E001208249F1
:10186000086000208149C1F89C0101207E490C31AB
:10187000086000207D49C1F8A00140F6B8317C48DD
:10188000FFF76DFB40F61C417948FFF76AFBE8E083
:1018900001207549086000207449C1F89C010120AD
:1018A00071490C31086000207049C1F8A0014FF463
:1018B00048616F48FFF753FB40F6FC016C48FFF7A7
:1018C00050FBCEE001206849086000206749C1F85C
:1018D0009C01012064490C31086000206349C1F873
:1018E000A00140F6FC016248FFF739FB4FF4486164
:1018F0005F48FFF736FBB4E000205B490860012039
:101900005A49C1F89C01002057490C310860012058
:101910005649C1F8A00140F6B8315548FFF71FFB02
:1019200040F61C415248FFF71CFB9AE019E031E0F9
:1019300049E062E001204C4908604C49C1F89C0133
:1019400049490C3108604949C1F8A00140F6B83155
:101950004748FFF704FB40F61C414548FFF701FBF1
:101960007FE001204049086000204049C1F89C0107
:101970003D490C31086001203C49C1F8A00140F606
:1019800086313B48FFF7EBFA40F6FC013848FFF799
:10199000E8FA66E000203449086001203349C1F8C4
:1019A0009C0131490C31086000203049C1F8A00188
:1019B00040F6FC012E48FFF7D2FA40F686312C485B
:1019C000FFF7CFFA4DE001202749086000202749A2
:1019D000C1F89C01012024490C31086000202349F2
:1019E000C1F8A00140F6DE512148FFF7B8FA4FF4E4
:1019F00061611F48FFF7B5FA33E000201A4908601B
:101A000001201A49C1F89C01002017490C310860D7
:101A100001201649C1F8A00140F6FC011448FFF767
:101A20009EFA4FF448611248FFF79BFA19E0002034
:101A30000D49086001200D49C1F89C0100200A49A8
:101A40000C31086001200949C1F8A0014FF4486138
:101A50000748FFF784FA40F6FC010548FFF781FAD2
:101A600000BF00BF10BD00009881214200802142CC
:101A70000004004010B56FF00400FFF733F90A4886
:101A800000680A49B0FBF1F009490870084600787F
:101A900000EB4001C1EBC0104FF6FF7101EAC0003E
:101AA0000449088010BD00002C00002000127A00BC
:101AB000980D00209A0D00200146114A12884A43D1
:101AC0004FF0E0235A6100229A611A46126942F0EF
:101AD00001021A6100BF4FF0E022106900F001021C
:101AE0001AB100F48032002AF5D04FF0E0221269DA
:101AF00022F001024FF0E0231A6100229A61704740
:101B00009A0D00200146114A12784A434FF0E02313
:101B10005A6100229A611A46126942F001021A6162
:101B200000BF4FF0E022106900F001021AB100F48A
:101B30008032002AF5D04FF0E022126922F0010233
:101B40004FF0E0231A6100229A617047980D00203F
:101B500010B56420FFF7B0FFFEF7D8FDFEF7BAFD21
:101B60006420FFF7A9FF102305A200212220FEF721
:101B700007FF102304A203210C20FEF701FF10BD74
:101B800052756E6E696E67005961773A0000000009
:101B900008B501210C20FEF789FF4FF47070ADF8F5
:101BA000000010208DF8030003208DF80200694624
:101BB0000448FEF7CFFB4FF470710248FEF75EFC5D
:101BC00008BD0000000C014010B50120FFF732FEF7
:101BD0004FF47A70FFF770FF4FF47A70FFF76CFFE5
:101BE0000220FFF727FE4FF47A70FFF765FF4FF4EE
:101BF0007A70FFF761FF0420FFF71CFE4FF47A7044
:101C0000FFF75AFF4FF47A70FFF756FF0520FFF7F2
:101C100011FE4FF47A70FFF74FFF4FF47A70FFF721
:101C20004BFF0320FFF706FE4FF47A70FFF744FFE7
:101C30004FF47A70FFF740FF10BD000070B5FEF75B
:101C4000FDFE0446032C08DD0C2C06DAE01EC0B2B3
:101C500004460F490870012070BD0A2094FBF0F083
:101C60003030C5B210232A4606214820FEF7CEFDAB
:101C70000A2094FBF0F100FB11403030C5B2102374
:101C80002A4606215020FEF7C1FD0020E4E70000AF
:101C90000E00002070B5FEF7D1FE04460C2C01D1D9
:101CA000012070BD0A2094FBF0F03030C5B2102343
:101CB0002A4606214820FEF7A9FD0A2094FBF0F1F0
:101CC00000FB11403030C5B210232A4606215020B7
:101CD000FEF79CFD0020E4E700BF054A128802F0F1
:101CE0004002002AF9D0C2B2014B1B1D1A80704776
:101CF0000038014000F0010119B101212C4A1160A6
:101D000002E000212A4A116000F0020121B1012104
:101D1000274A0C32116003E00021254A0C32116081
:101D200000F0040121B10121214A1032116003E0C9
:101D300000211F4A1032116000F0080119B1012181
:101D40001C4A116002E000211A4A116000F01001E3
:101D500021B10121174A121D116003E00021154A2B
:101D6000121D116000F0200121B10121114A083239
:101D7000116003E000210F4A0832116000F04001B9
:101D800021B101210B4A0C32116003E00021094A04
:101D90000C32116000F0800121B10121054A10329E
:101DA000116003E00021034A103211607047000007
:101DB000A00121429481214200F00CFFFFF7C8FEF0
:101DC0004FF47A70FFF778FE4FF47A70FFF774FEE5
:101DD00000BF7448008800F400400028F9D00020BB
:101DE000704908804FF47A70FFF766FED8E06E48BD
:101DF0000078012875D16D48008840F62942811A83
:101E000090426FD029DC7B286DD012DC70285BD02B
:101E100008DC012848D0022845D0032842D06F288A
:101E200046D14AE0712857D0792861D07A283FD12D
:101E300066E0DE2863D008DCD3283DD0D42842D029
:101E4000D52848D0DD2876D151E0DF2861D0A0F632
:101E5000274070B301286ED123E0632957D012DCEC
:101E60000A295DD008DC01292CD0022932D00829AA
:101E700020D009295FD12CE00B2937D00C2947D07D
:101E8000622958D131E0A1F164000D2853D2DFE876
:101E900000F04D353D52525252522B0746343C0011
:101EA00000BF00BF00BF00BF47F2305000F008FE87
:101EB00041E000E000BF00BF00BF49F6580000F05D
:101EC000FFFD38E000BF00BF49F65800FFF774FC83
:101ED00031E000BF00BF00BF4BF6803000F0F0FDE6
:101EE00029E02CE01DE015E000BF00BF00BF00BFEF
:101EF00045F2082000F0E4FD1DE000BF00BF00BF78
:101F000045F20820FFF758FC15E000BF00BF00BFF6
:101F100000BF00BF42F6E06000F0D2FD0BE000BF62
:101F200000BF47F23050FFF747FC04E042F6E060A4
:101F3000FFF742FC00BF00BF00F03EF828E01C485D
:101F40000078012802D1FFF73FFE21E01848007811
:101F500002281DD1FEF772FD04460A2094FBF0F022
:101F60003030C5B210232A4606214820FEF74EFC29
:101F70000A2094FBF0F100FB11403030C5B2102371
:101F80002A4606215020FEF741FC6420FFF794FD0D
:101F900008480068401C074908601420FFF78CFDC2
:101FA00025E70000A00D0020080000200A00002006
:101FB0000C0000200000002010B5FA480088B0B9DD
:101FC000FFF73CFE60B10120F6490880F648007832
:101FD0003030C2B2102306212420FEF717FC34E271
:101FE0001023302206212420FEF710FCF7E7ED48ED
:101FF0000088012841D1FFF74DFE0028EFD00020D6
:10200000EA490860E8480078012803D0E6480078EB
:10201000022828D10320FFF70DFC4FF4FA70FFF7D8
:102020004BFDE148007801280ED16E20DD49088083
:1020300049F6580000F036FE6F20DA490880DC4887
:102040000068DC490860CAE77820D649088045F274
:10205000082000F027FE7920D2490880D448006883
:10206000D4490860BBE7CF480088401CCD490880B0
:10207000CF480068CF490860B1E7CA4800886F2898
:1020800017D1CB480168CB48006823308142A6D3E2
:10209000C4480088401CC34908800320FFF7CAFBDE
:1020A0004FF47A70FFF708FDC1480068C149086025
:1020B00095E7BC480088702819D1BD480168BD4823
:1020C0000068233081428AD3B6480088401CB54955
:1020D00008800320FFF7AEFB6420FFF7EDFC012032
:1020E00000F094FDB2480068B249086077E7AD4857
:1020F0000088712813D1AE480168AE4800683830B6
:102100008142A0D3A7480088401CA649088003202C
:10211000FFF790FB4FF47A70FFF7CEFC5FE7A14822
:102120000088792817D1A2480168A24800682330A6
:10213000814288D39B480088401C9A49088003202C
:10214000FFF778FB4FF47A70FFF7B6FC9848006809
:102150009849086043E7934800887A2819D1944841
:102160000168944800682330814285D38D480088F7
:10217000401C8C4908800320FFF75CFB6420FFF7BC
:102180009BFC002000F042FD8948006889490860F6
:1021900025E7844800887B2813D185480168854855
:1021A000006838308142A1D37E480088401C7D49B8
:1021B00008800320FFF73EFB4FF47A70FFF77CFCAA
:1021C0000DE778480088022849D1FFF763FD002811
:1021D0008CD077480168774800680A30814285D3FF
:1021E000002072490C3108606F480078032803D042
:1021F0006D480078042828D10320FFF71BFB4FF41B
:102200007A70FFF759FC6848007803280ED1D22075
:102210006449088049F6580000F044FDD320614924
:1022200008806348006863490860E2E3DC205D4998
:10223000088045F2082000F035FDDD20594908806E
:102240005B4800685B490860D3E356480088401C3F
:10225000544908805648006856490860C9E3514807
:102260000088D32817D152480168524800682330AB
:1022700081428DD34B480088401C4A490880032086
:10228000FFF7D8FA4FF47A70FFF716FC4848006859
:1022900048490860ADE343480088D42819D1444830
:1022A0000168444800682330814289D33D48008852
:1022B000401C3C4908800320FFF7BCFA6420FFF76C
:1022C000FBFB012000F0A2FC394800683949086096
:1022D0008FE334480088D52812D135480168354845
:1022E000006878308142A0D32E480088401C2D49D8
:1022F00008800320FFF79EFA6420FFF7DDFB78E3F8
:1023000028480088DD2817D1294801682948006835
:102310002330814289D323480088401C214908800A
:102320000320FFF787FA4FF47A70FFF7C5FB2048C8
:102330000068204908605CE31A480088DE2819D14B
:102340001B4801681B4800682330814286D315482A
:102350000088401C134908800320FFF76BFA6420B3
:10236000FFF7AAFB002000F051FC1148006811495A
:1023700008603EE30B480088DF281DD10C48016847
:102380000C4800687830814284D306480088401C9D
:10239000044908800320FFF74DFA4FF47A70FFF7E5
:1023A0008BFB26E30A0000200E000020A001214242
:1023B0000000002004000020FC48008803286FD1A2
:1023C000FFF768FC00289AD0F9480168F9480068CE
:1023D0000A30814293D30020F74908600120FFF7BB
:1023E00029FA6420FFF768FBF448007805280BD031
:1023F000F2480078062807D0F0480078072803D074
:10240000EE480078082861D10320FFF713FA4FF453
:102410007A70FFF751FB0120FFF70CFA6420FFF7F9
:102420004BFBE6480078052810D140F62640DF49EE
:10243000088049F6580000F035FC40F62740DB499B
:102440000880DB480068DB490860D2E2DB4800789E
:10245000072810D14FF44360D449088049F658004A
:1024600000F020FC40F63140D0490880D048006898
:10247000D0490860BDE2D1480078062811D140F665
:102480008A40CA49088045F2082000F00BFC40F65B
:102490008B40C6490880C6480068C6490860A8E263
:1024A0001EE0C64800780828CFD140F69440BF49C6
:1024B000088045F2082000F0F5FB40F69540BB4946
:1024C0000880BB480068BB49086092E2B7480088B2
:1024D000401CB6490880B6480068B649086088E2E2
:1024E000B248008840F6274188421BD1B0480168B5
:1024F000B048006837308142A7D3AC480088401C00
:10250000AA4908800320FFF795F94FF47A70FFF786
:10251000D3FA47F2305000F0C5FBA5480068A54942
:10252000086066E2A148008840F62841884216D13A
:102530009F4801689F4800682330814285D39B48AB
:102540000088401C994908800320FFF773F9642034
:10255000FFF7B2FA964800689649086049E2934846
:10256000008840F6294188421AD191480168914873
:1025700000682330814292D38C480088401C8B49EC
:1025800008800320FFF756F96420FFF795FA49F613
:10259000580000F087FB864800688649086028E2FA
:1025A0008248008840F62A41884219D18048016853
:1025B000804800683730814287D37C480088401CBF
:1025C0007A4908800320FFF735F96420FFF774FA91
:1025D000012000F01BFB764800687649086008E29D
:1025E0007248008840F62B41884216D17048016835
:1025F00070480068A030814293D36C480088401C2A
:102600006A4908800320FFF715F96420FFF754FAA0
:102610006748006867490860EBE16448008840F655
:102620003141884226D1FFF735FB002896D00120A2
:102630006149103908606249C1F8AC01C1F8B001C4
:102640005A480088401C594908800120FFF7F2F8D9
:10265000C820FFF731FA0320FFF7ECF84FF4FA70C7
:10266000FFF72AFA012000F0D1FA514800685149D9
:102670000860BEE14D48008840F63241884216D1DC
:102680004B4801684B4800681E30814287D3474859
:102690000088401C454908800320FFF7CBF86420E0
:1026A000FFF70AFA4248006842490860A1E13F4842
:1026B000008840F6334188421AD13D4801683D48C0
:1026C0000068283081428AD338480088401C374946
:1026D00008800320FFF7AEF86420FFF7EDF945F21C
:1026E000082000F0DFFA324800683249086080E1D3
:1026F0002E48008840F63441884219D12C480168A0
:102700002C4800682D30814286D328480088401C20
:10271000264908800320FFF78DF86420FFF7CCF9E5
:10272000002000F073FA224800682249086060E146
:102730001E48008840F63541884216D11C48016881
:102740001C4800688230814293D318480088401C9E
:10275000164908800320FFF76DF86420FFF7ACF9F5
:10276000134800681349086043E11048008840F6A8
:102770008B41884226D10E4801680E4800683730E8
:10278000814293D309480088401C084908800320EF
:10279000FFF750F84FF47A70FFF78EF9002000F041
:1027A00035FA034800680349086022E10A00002066
:1027B0000000002004000020B00121420E00002093
:1027C000000021428B48008840F68C41884216D197
:1027D00089480168894800682330814287D3854849
:1027E0000088401C834908800320FFF723F86420F9
:1027F000FFF762F98048006880490860F9E07D4889
:10280000008840F68D4188421AD17B4801687B4898
:102810000068233081428AD376480088401C75497D
:1028200008800320FFF706F86420FFF745F945F21A
:10283000082000F037FA7048006870490860D8E056
:102840006C48008840F68E41884219D16A48016878
:102850006A4800683730814211D366480088401CBE
:10286000644908800320FEF7E5FF6420FFF724F9A0
:10287000002000F0CBF96048006860490860B8E0CB
:102880005C48008840F68F41884216D15A4801685A
:102890005A480068A03081420ED356480088401C38
:1028A000544908800320FEF7C5FF6420FFF704F9B0
:1028B00051480068514908609BE04E48008840F646
:1028C000954188421BD14C4801684C48006837301C
:1028D000814213D347480088401C464908800320A2
:1028E000FEF7A8FF4FF47A70FFF7E6F847F2305092
:1028F00000F0D8F9404800684049086079E03D4858
:10290000008840F69641884216D13B4801683B4812
:102910000068233081426CD336480088401C35491A
:1029200008800320FEF786FF6420FFF7C5F83248D1
:102930000068324908605CE02E48008840F6974104
:1029400088421AD12C4801682C4800682330814203
:102950004FD328480088401C264908800320FEF7F2
:1029600069FF6420FFF7A8F845F2082000F09AF903
:1029700021480068214908603BE01E48008840F675
:102980009841884219D11C4801681C4800683730BA
:1029900081422ED317480088401C16490880032026
:1029A000FEF748FF6420FFF787F8002000F02EF9BB
:1029B00011480068114908601BE00E48008840F685
:1029C0009941884215D10C4801680C480068A03034
:1029D00081420ED307480088401C06490880032026
:1029E000FEF728FF6420FFF767F8034800680349F3
:1029F000086010BD0A000020000000200400002034
:102A000000B589B001210420FEF750F8012108200B
:102A1000FEF74CF801210220FEF738F801210846A4
:102A2000FEF744F84020ADF8200003208DF8220086
:102A300018208DF8230008A91C48FDF78BFC022004
:102A4000ADF8200008A91A48FDF784FC41F61F40A4
:102A5000ADF81800C720ADF814000020ADF81A003A
:102A6000ADF8160005A91348FEF780FA6020ADF80E
:102A700004000120ADF806000020ADF80C0001A90B
:102A80000C48FEF7C9F908210A48FEF711FA01A916
:102A90000848FEF717FA08210648FEF751FA012107
:102AA0000448FEF787F909B000BD000000080140A6
:102AB000000C014000040040014608687047000017
:102AC0002DE9F04104464BF6803084420CD13F485A
:102AD000008847F23051884206DA3C48008848F6C0
:102AE000A041084485B212E042F6E06084420CD175
:102AF0003648008847F23051884206DD3348008866
:102B0000A0F50C40A03885B201E030480588304877
:102B1000008800F4004048B100202D4908800523BA
:102B20002A48028803213020FDF7BEFEFDF786FF0C
:102B300006460A2096FBF0F03030C7B210233A4622
:102B400006214820FDF762FE0A2096FBF0F100FB0B
:102B500011603030C7B210233A4606215020FDF7ED
:102B600055FEA4F1FA00A84201DC022E0CD102208D
:102B7000FEF760FE10234C2206214020FDF746FEA2
:102B80001420FEF799FF1EE004F1FA00854201DCF3
:102B9000032E0CD10420FEF74DFE102352220621F5
:102BA0004020FDF733FE1420FEF786FF0BE00120E6
:102BB000FEF740FE1023472206214820FDF726FE9F
:102BC0001420FEF779FFBDE8F0810000120000201C
:102BD000A00D002010B5FDF725FDFEF74BFFFDF71A
:102BE00053FC4FF4E13000F0ADF8FEF7D1FFFFF7F2
:102BF00007FFFDF707FF64210348FEF7B0F96421E2
:102C00000148FEF7AEF910BD0004004010B50446BF
:102C100039E02248008800F4004048B100201F49F4
:102C2000088005231E48028803213020FDF73CFE62
:102C3000012C13D11A4800884BF6B82188420CDACF
:102C40001748008847F23051884206DD0620FEF71B
:102C5000F1FD0A20FEF730FF15E015E0104800886E
:102C6000C83842F6E06188420CDD0D48008847F222
:102C70003051884206DA0720FEF7DCFD0A20FEF715
:102C80001BFF00E000E0C4E700BF0320FEF7D2FD19
:102C90004FF49670FEF710FF10BD0000A00D00204D
:102CA0001200002070B5044624480088A04201DAD2
:102CB000012500E0002545F20820844206D11F4886
:102CC000008849F64041884200DD01252BE01C4880
:102CD000008800F4004048B100201949088005230D
:102CE0001648028803213020FDF7DEFD012D0DD1AD
:102CF0001248018804F17800814206DA0620FEF7C6
:102D000099FD3220FEF7D8FE0DE00DE00B4800885B
:102D10006430844206DA0720FEF78CFD3220FEF78D
:102D2000CBFE00E000E0D2E700BF0320FEF782FD0B
:102D30004FF49670FEF7C0FE70BD00001200002038
:102D4000A00D002010B586B0044601210420FDF737
:102D5000ADFE01214804FDF799FE0420ADF81400F2
:102D600003208DF8160018208DF8170005A91C48BF
:102D7000FDF7F0FA0820ADF8140004208DF81700D4
:102D800005A91748FDF7E6FA26208DF80000032074
:102D90008DF8010002208DF8020001208DF803005B
:102DA0006846FDF75FFC01940020ADF80800ADF81F
:102DB0000A00ADF80C00ADF810000C20ADF80E00C4
:102DC00001A90848FEF732FA012240F225510548D0
:102DD000FEF706FA01210348FEF7CCF906B010BD54
:102DE000000801400044004030B595B0054613ABE3
:102DF00012AA09A9284600F039FA044614B120465F
:102E000015B030BD0020149026E0224909689DF8D5
:102E1000502001EBC20113AB11AA486801A900F0D0
:102E200025FA04460CB12046EAE709A901A800F0FA
:102E3000BBFC60B99DF844009DF84810884201DD54
:102E40000220DDE79DF85000124988750AE09DF8E0
:102E50005000401CC0B214900E48007D9DF85010E8
:102E60008842D2DC00BF0B48007D9DF8501088429C
:102E700001D10420C4E714A9284600F0D7FA04467B
:102E80000CB12046BCE79DF850000249487500206F
:102E9000B6E70000E80D00202DE9F0419AB09C480B
:102EA000847D007DA04202DC1AB0BDE8F081984923
:102EB000096801EBC40106AB07AA486808A900F03D
:102EC000D5F908A993A0FEF725FA002644E090481A
:102ED000008B0121B1400840D8B122218FA0FEF71C
:102EE00019FA304600F028FB894924314718394641
:102EF0008BA0FEF70FFA222188A0FEF70BFA3046CE
:102F000000F01AFB82492431084410A941F8260038
:102F100018E0304600F010FB7D492431085810A914
:102F200041F826007A48C07D30B910A850F8261024
:102F30007CA0FEF7EFF905E010A850F826107AA063
:102F4000FEF7E8F99DF81C00401EB04202D078A0C0
:102F5000FEF7E0F9701CC6B29DF81C008642B6DB95
:102F600074A0FEF7D7F900F039FB6948407D0B28C3
:102F70000DD2DFE800F0060D151E27323F4E5F72BE
:102F800087006349096851F834008047054690E09E
:102F90005F4A126852F8341010988847054688E056
:102FA0005B4B1B6853F83420DDE910019047054660
:102FB0007FE0574F3F6857F8343010A807C898474C
:102FC000054676E0DFF848C1DCF800C05CF83470F4
:102FD00010A80FC8B84705466BE01498DFF830C159
:102FE0000090DCF800C05CF8347010A80FC8B84737
:102FF00005465EE0DDE91401DFF814C1CDE900010A
:10300000DCF800C05CF8347010A80FC8B84705465B
:103010004FE0DDE914121698DFF8F4C0CDE9001294
:103020000290DCF800C05CF8347010A80FC8B847F4
:1030300005463EE0DDE91423DDE91610DFF8D0C0D7
:10304000CDE90023CDE90210DCF800C05CF8347053
:1030500010A80FC8B84705462BE0DDE91523DDE9C8
:103060001710CDE90123CDE903101498DFF8A0C0B3
:103070000090DCF800C05CF8347010A80FC8B847A6
:10308000054616E0DDE91623DDE91810CDE9022337
:10309000CDE90410DDE91401DFF874C0CDE90001C9
:1030A000DCF800C05CF8347010A80FC8B8470546BB
:1030B00000BF00BF00F050FA9DF8180001280CD1A5
:1030C0001348C07D20B929461BA0FEF723F907E06D
:1030D00029461BA0FEF71EF902E018A0FEF71AF918
:1030E0000B4890F8EC0088B10948D0F8F0000A21AC
:1030F000B0FBF1F201FB12070548D0F8F000B0FB7D
:10310000F1F83A46414611A0FEF704F900BFCBE6BC
:10311000E80D00200D0A257328000000256300003B
:1031200025730000256C75003058255800000000FC
:103130002C000000290000003D256C753B0D0A00A5
:103140003D305825583B0D0A0000000046756E635F
:1031500074696F6E2052756E2054696D653A2564EE
:103160002E2531646D730D0A00000000F0B5034692
:103170001546002000220026002455E01F782C2F41
:1031800001D104B901221F78292F01D01F780FB96E
:1031900004B94AE0002E34D11F78302F02DB1F78AB
:1031A000392F11DD1F78612F02DB1F78662F0BDDB1
:1031B0001F78412F02DB1F78462F05DD1F78582F1F
:1031C00002D01F78782F0CD102B12EE01F78612F2A
:1031D00003DB1F78203F0F7001E01F780F70491C40
:1031E0001FE01F78222F04D102B11EE00126012426
:1031F00017E01F78202F14D01F782C2F11D0FF2616
:1032000013E01F78222F00D1002402B10DE044B159
:103210001F785C2F02D15B1C471CF8B21F780F701F
:10322000491C471CF8B25B1CA8E700BF00270F70C1
:103230002E70F0BD10B50446002010700BE0207811
:103240000870641C491C1078401C1070107898425B
:1032500001DB012010BD2078202802D02078002832
:10326000EDD10020087000BFF4E700002DE9FF4F0A
:1032700085B08046894600270020049003900120F5
:1032800002904FF0000B002544461DE020782028D6
:1032900016D005F07F00052812DA0DB945F080053B
:1032A00005F07F00042803D120782A2800D00EE002
:1032B000207805F07F010DF80100681CC5B202E01E
:1032C000852D00D103E0641C20780028DED100BFEA
:1032D0008DB1002005F07F010DF8010051A1684675
:1032E00000F062FA18B900210898017002E001218B
:1032F0000898017000254FF0000A444614E0641C51
:103300000AF1010000F0FF0A2078202802D020787E
:103310002A2809D1204600F0D7F90646282E03D0E6
:103320002A2E01D0CDF810A02078282802D02078AD
:103330000028E4D14446049810B10498401C044489
:103340004FF0000A002654E0207810B94FF0010A2F
:1033500050E02078282803D116B9781CC7B213E0B2
:103360002078292808D13EB917B1781EC7B201E0EC
:103370004FF0010A47B93DE02078222804D10EB968
:10338000012000E00020064647B9207820282FD0F1
:10339000207889F8000009F1010929E020782C281B
:1033A00004D101200290681CC5B214E020782028C6
:1033B00011D0207828280ED04DB9BBF1050F06DAC0
:1033C00020780DF80B000BF1010000F0FF0B0298C4
:1033D000401CC0B20290012F0AD10298022807D1E6
:1033E0000298401CC0B202900398401CC0B20390E7
:1033F000641CA9E700BF0398012809D100200DF83B
:103400000B0008A1684600F0CFF908B9002003902E
:10341000079903980870002089F80000504609B009
:10342000BDE8F08F766F6964000000002DE9F0437D
:10343000B5B005460F460024002604E000213D48B3
:103440008155701CC6B20A2EF8DB06E06D1C287888
:1034500018B9012035B0BDE8F08328782828F5D1C7
:103460006D1C61E034AA69462846FFF77FFE0646D8
:1034700035449DF8D00020B1012827D0FF284CD139
:1034800049E09DF8000000B333A9684600F027F931
:1034900006460EB10220DDE7204600F04DF8254932
:1034A0000A31339A0A50A1F12400008B0121A14076
:1034B000884320491A39088304211E480155601C9D
:1034C000C4B20A2C01DD0320C4E726E0684600F000
:1034D00087F9401C00F0FF08204600F02DF8154940
:1034E0000A3100EB01094946684600F06EF91148BF
:1034F0001A38018B0120A040014388B20D491A39C6
:1035000008830C4800F80480601CC4B20A2C01DD5A
:1035100003209FE701E002209CE700BF28782928CC
:1035200001D0287800B900E09CE700BF3C70002083
:1035300090E70000020E002002460020002105E076
:10354000044B5B5C0344D8B24B1CD9B29142F7DB0D
:1035500070470000020E002010B501210D48FDF754
:1035600038FC012808D10C48D0F8F0004FF6FF7164
:1035700008440949C1F8F0000648FDF727FC064950
:10358000D1F8F01008440449C1F8F0000846D0F81A
:10359000F00010BD00080040E80D002010B5044602
:1035A00004EBC40000EB04100122C2EB800081B2E6
:1035B0004FF47A70FDF72CFD01200149C87510BD4C
:1035C000E80D002010B50246012000E050430B003A
:1035D000A1F10104E1B2F9D110BD000010B5012143
:1035E0000848FDF7E1FB4FF6FF710648FDF7B5FC13
:1035F00000210448FDF7B8FC00200349C1F8F000A1
:1036000010BD000000080040E80D002070B51D4806
:10361000008800F40040002833D01A4805780020C4
:1036200019494855194881681748884704461CB904
:103630001649C868804721E0134800F0DDF80546C8
:10364000012D00D02C46CCB1012C06D0022C08D084
:10365000032C0AD0042C10D10BE00DA0FDF75AFE6C
:103660000BE00EA0FDF756FE07E00FA0FDF752FE9F
:1036700003E010A0FDF74EFE00BF00BF002001498F
:10368000088070BDA00D0020DC0E0020E80D002099
:10369000BAAFCAFDB4EDCEF3210D0A00B2CECAFD19
:1036A000B4EDCEF3210D0A00B2CECAFDCCABB6E02C
:1036B000210D0A00CEB4D5D2B5BDC6A5C5E4B5C4AA
:1036C000BAAFCAFD210D0A000146491C00E0491CA1
:1036D0000878202801D10029F9D1087870472DE910
:1036E000F04307460E4600254FF00A083C460020EE
:1036F00030601FE02078392802DC207830280ADA90
:103700002078462802DC2078412804DA20785828DE
:1037100009D1012D07D12078412801DB4FF0100895
:10372000681CC5B205E0207800B904E00120BDE8BE
:10373000F083641CDEE700BF3C46B8F1100F0FD1E8
:10374000032D01DA0220F2E72078302806D16078D4
:10375000582803D1A41CA81EC5B204E00320E6E744
:103760000DB90420E3E71BE00DB1681EC5B2207857
:10377000392806DC2078302803DB2078A0F13009D6
:1037800002E02078A0F1370929464046FFF71AFFEA
:10379000316809FB00103060641C207800B900E03B
:1037A000E2E700BF0020C2E702460AE010780B788B
:1037B000984201D001207047107800B902E0521CF5
:1037C000491CF3E700BF0020F5E706E002780A7025
:1037D000027802B902E0401C491CF7E700BF7047BD
:1037E0000146002005E00A7802B903E0421CD0B28D
:1037F000491CF8E700BF704710B58CB004461E2383
:103800000BAA03A92046FFF715FD0090009810B100
:1038100001200CB010BD9DF82C00044400200B903A
:103820000EE040489DF82C2050F8221003A8FFF726
:10383000BBFF00B908E09DF82C00401CC0B20B9003
:103840009DF82C000728ECD300BF9DF82C0007281A
:1038500063D2DFE800F004053C5E6564630000BFEE
:1038600031A0FDF757FD31A0FDF754FD3FA0FDF756
:1038700051FD4EA0FDF74EFD5CA0FDF74BFD6BA08A
:10388000FDF748FD79A0FDF745FD86A0FDF742FD57
:103890008BA0FDF73FFD90A0FDF73CFD94A0FDF748
:1038A00039FD99A0FDF736FD9EA0FDF733FDA4A0DC
:1038B000FDF730FDB0A0FDF72DFDBDA0FDF72AFD01
:1038C000C8A0FDF727FDD4A0FDF724FD9AE216A0BD
:1038D000FDF720FDE0A0FDF71DFD00200B900EE0A0
:1038E000ED4800689DF82C2000EBC2004168EBA079
:1038F000FDF710FD9DF82C00401CC0B20B90E6486F
:10390000007D9DF82C108842EADC07A0FDF702FD3F
:1039100078E205A0FDF7FEFCC4E171E245E219E2A0
:10392000ECE10000A40D00200D0A00002D2D2D2D2E
:103930002D2D2D2D2D2D2D2D2D2D2D2D2D2D2D2DB7
:103940002D2D2D2D55534D4152542056332E312DB2
:103950002D2D2D2D2D2D2D2D2D2D2D2D2D2D2D2D97
:103960002D2D2D2D2D2D2D200D0A00002020202065
:1039700055534D415254CAC7D3C9414C49454E5481
:10398000454BBFAAB7A2B5C4D2BBB8F6C1E9C7C9F7
:10399000B5C4B4AEBFDAB5F7CAD4BBA5BDBBD7E9D1
:1039A000BCFE2CCDA8B9FD200D0A0000CBFC2CC418
:1039B000E3BFC9D2D4CDA8B9FDB4AEBFDAD6FACA36
:1039C000D6B5F7D3C3B3CCD0F2C0EFC3E6B5C4C805
:1039D000CEBACEBAAFCAFD2CB2A2D6B4D0D02ED2B7
:1039E000F2B4CB2CC4E3BFC90D0A0000D2D4CBE69D
:1039F000D2E2B8FCB8C4BAAFCAFDB5C4CAE4C8EBD9
:103A0000B2CECAFD28D6A7B3D6CAFDD7D628313044
:103A10002F3136BDF8D6C629A1A2D7D6B7FBB4AE92
:103A2000A1A2BAAFCAFDC8EB0D0A0000BFDAB5D833
:103A3000D6B7B5C8D7F7CEAAB2CECAFD292CB5A540
:103A4000B8F6BAAFCAFDD7EEB6E0D6A7B3D63130D6
:103A5000B8F6CAE4C8EBB2CECAFD2CB2A2D6A7B360
:103A6000D6BAAFCAFDB7B5200D0A0000BBD8D6B58F
:103A7000CFD4CABE2ED0C2D4F6B2CECAFDCFD4CADD
:103A8000BEBDF8D6C6C9E8D6C3B9A6C4DC2CD0C220
:103A9000D4F6BDF8D6C6D7AABBBBB9A6C4DC2E0DDA
:103AA0000A000000BCBCCAF5D6A7B3D63A77777730
:103AB0002E6F70656E6564762E636F6D0D0A000063
:103AC00055534D415254D3D037B8F6CFB5CDB3C3CB
:103AD000FCC1EE3A0D0A00003F3A202020202020B1
:103AE000BBF1C8A1B0EFD6FAD0C5CFA20D0A000035
:103AF00068656C703A202020BBF1C8A1B0EFD6FAFF
:103B0000D0C5CFA20D0A00006C6973743A20202042
:103B1000BFC9D3C3B5C4BAAFCAFDC1D0B1ED0D0A98
:103B20000A00000069643A2020202020BFC9D3C3C6
:103B3000BAAFCAFDB5C44944C1D0B1ED0D0A0A00FF
:103B40006865783A20202020B2CECAFD3136BDF813
:103B5000D6C6CFD4CABE2CBAF3B8FABFD5B8F12BAB
:103B6000CAFDD7D6BCB4D6B4D0D0BDF8D6C6D7AA75
:103B7000BBBB0D0A0A0000006465633A20202020C8
:103B8000B2CECAFD3130BDF8D6C6CFD4CABE2CBA2B
:103B9000F3B8FABFD5B8F12BCAFDD7D6BCB4D6B4AA
:103BA000D0D0BDF8D6C6D7AABBBB0D0A0A0000000C
:103BB00072756E74696D653A312CBFAAC6F4BAAFDE
:103BC000CAFDD4CBD0D0BCC6CAB13B302CB9D8B119
:103BD000D5BAAFCAFDD4CBD0D0BCC6CAB13B0D0A52
:103BE0000A000000C7EBB0B4D5D5B3CCD0F2B1E039
:103BF000D0B4B8F1CABDCAE4C8EBBAAFCAFDC3FBC2
:103C0000BCB0B2CECAFDB2A2D2D4BBD8B3B5BCFC54
:103C1000BDE1CAF82E0D0A002D2D2D2D2D2D2D2D97
:103C20002D2D2D2D2D2D2D2D2D2D2D2D2D2D2D2DC4
:103C30002D2D414C49454E54454B2D2D2D2D2D2DCF
:103C40002D2D2D2D2D2D2D2D2D2D2D2D2D2D2D2DA4
:103C50002D2D2D200D0A00002D2D2D2D2D2D2D2D3E
:103C60002D2D2D2D2D2D2D2D2D2D2D2D2D2D2D2D84
:103C70002DBAAFCAFDC7E5B5A52D2D2D2D2D2D2DA6
:103C80002D2D2D2D2D2D2D2D2D2D2D2D2D2D2D2D64
:103C90002D2D2D2D200D0A00E80D002025730D0A75
:103CA0000000000059A0FDF735FB00200B901AE042
:103CB000664909689DF82C2001EBC20101AB02AAFC
:103CC000486803A9FFF7D2FA604800689DF82C10F5
:103CD00050F8312003A95EA0FDF71CFB9DF82C00D5
:103CE000401CC0B20B905948007D9DF82C108842B2
:103CF000DEDCAFF2CC30FDF70DFB83E0AFF2D83065
:103D0000FDF708FB0BAA03A92046FFF72FFA9DF841
:103D10002C00C8B9694603A8FFF7E1FC0B909DF899
:103D20002C0020B94FA00099FDF7F4FA0EE09DF8A1
:103D30002C00042801D002206BE54DA0FDF7EAFA23
:103D400001204249C87501E0022062E547A0FDF765
:103D5000E1FA57E045A0FDF7DDFA0BAA03A92046DA
:103D6000FFF704FA9DF82C00C8B9694603A8FFF7CD
:103D7000B6FC0B909DF82C0020B942A00099FDF7ED
:103D8000C9FA0EE09DF82C00042801D0022040E57D
:103D90003FA0FDF7BFFA00202C49C87501E00220C2
:103DA00037E532A0FDF7B6FA2CE030A0FDF7B2FA05
:103DB0000BAA03A92046FFF7D9F99DF82C00C8B932
:103DC000694603A8FFF78BFC0B909DF82C0078B98F
:103DD0001E49009881F8EC00084690F8EC0018B1F4
:103DE00030A0FDF797FA07E035A0FDF793FA03E05E
:103DF00002200EE502200CE51CA0FDF78BFA01E085
:103E0000012006E500BF002003E500002D2D2D2D2B
:103E10002D2D2D2D2D2D2D2D2D2D2D2D2D2D2D2DD2
:103E20002D2D2D2D2DBAAFCAFD204944202D2D2D2D
:103E30002D2D2D2D2D2D2D2D2D2D2D2D2D2D2D2DB2
:103E40002D2D2D2D2D2D2D2D200D0A00E80D0020BE
:103E500025732069642069733A0D0A30582530387B
:103E6000580D0A004845583A305825580D0A0000A8
:103E70003136BDF8D6C6B2CECAFDCFD4CABE210DEA
:103E80000A0000004445433A256C750D0A00000005
:103E90003130BDF8D6C6B2CECAFDCFD4CABE210DD0
:103EA0000A00000052756E2054696D652043616CF4
:103EB00063756C6174696F6E204F4E0D0A000000CF
:103EC00052756E2054696D652043616C63756C6139
:103ED00074696F6E204F46460D0A000001607047FE
:103EE0003F000000646563006964000072756E74D1
:103EF000696D650068656C70000000006C69737422
:103F00000000000068657800766F6964206C656465
:103F10005F6F757470757428753820636D6429003F
:103F2000766F69642077726974655F616464722872
:103F300075333220616464722C7533322076616C83
:103F40002900000075333220726561645F6164642A
:103F5000722875333220616464722900766F696457
:103F60002064656C61795F6D7328753136206E6DE4
:103F700073290000766F69642064656C61795F75F0
:103F80007328753332206E7573290000AC3F00082A
:103F900000000020DC0E00002E020008EC470008A4
:103FA000DC0E0020CC040000441300088132011212
:103FB0000232075B3075122C020304043009060735
:103FC0000809020406087CA24A0430591A91422FBB
:103FD0002A07421B147F021116242A7F2A12166216
:103FE00064081323263649552250430503341C2206
:103FF000411C41221C2A15083E08141A0806295E95
:1040000023A0602A0801211A600B11162010080451
:1040100002263E5149453E1C427F400515615149EB
:1040200046162141454B31161814127F10162745AC
:10403000454539163C4A4949301C0171096216361A
:104040004949493626064949291E4336362A560625
:104050002B0814782A1401297E1314081602015122
:10406000090616324959513E167C1211127C3A7FCC
:104070003C163E414141221A7F053A1C1212411E54
:104080007F09090901181449497A1A7FA11A7F4248
:104090001A7F4E1E2040413F0112295B1B7F4001C9
:1040A00011167F020C027F3E7F0408107F483A3EC3
:1040B0003C1A060C1C51215E0C141929461A465450
:1040C00012311601017F01011A3F35123F1E1F20D8
:1040D00040201F0C1A380C166314081463160708C6
:1040E00070080719EF234543198B211B552A021924
:1040F000781A417D16040201020429712240290B1D
:1041000011162054545478167F484444382E3844AD
:104110004444200613487F1A3818121816087E09DE
:1041200001021D18A4A4A4E425080404781B447DFE
:104130003B1D4080847D5F341028441B417F121C4E
:104140007C04181E3A7C242948123816FC242424A6
:10415000181A18053AFC1812081A485412201604A6
:104160003F444020163C4040207C1A1CC01A1C0CC6
:104170001430403C2B44284F161CA0A0A07C3F4488
:1041800064544C441401011372F84333301C100C76
:104190000603912C40C0780319672A0403212D706F
:1041A00088FC0829261820FF211E14F008F033E0AF
:1041B000184D211C031E11338870000C101E212382
:1041C000241927211010160E45E01804021C0718A8
:1041D00020EA3D020418E0692C20180707174080E8
:1041E000F08040403F0202010F01022842F01D0111
:1041F00001011F04912B80B066B1191D2901913A6C
:1042000030CE492C146018043C6018061D1EE010C6
:10421000080810721F0F102020100FF05310F836EE
:1042200020203F20203C700808C21E302824222174
:10423000441E3008888848082E1820202011CC3BC6
:10424000C0203227070424243F241AF8202308081A
:104250004B19212036E0108888184B0F11101E389A
:104260000808C8382021523F1A702E29608F1C225E
:104270002121221C90111D31222211901961CAC0E6
:10428000C26A80C659081C40201050170102040859
:1042900010204A4001114A04012119152A403219FF
:1042A000251B0402F21B7048D13AF0501A360F1E3B
:1042B000C030C828E87028080718272423140B6F7B
:1042C0002A387E280D203C23020227382008F8884F
:1042D000889F4B203FF01BC0303F1B08383019101F
:1042E00019781B08F80F194039201B100F103E8851
:1042F00088E8081010AC23201810112A035E29400A
:10430000223829402C221E024019A41809F808203E
:104310003F21010121252A085229812942414911C1
:104320002EC08080807F0E2FF888C0281808501C6F
:104330000126382F2940292F29801B20301012F800
:104340001AF81413203F190229204B30C0601A209C
:1043500074123F4BE010B06B0F10B029D01AF03040
:104360001980220179203F18242438504FC04C88EE
:104370008870C0140C30204B7088C1173820212160
:10438000221C3A189F4A188239A049D0112A1F903E
:10439000121F240878881BC838151C07380E6019AE
:1043A0001A1AF8201114033C0714073C0348140898
:1043B0001868808068180820302C03032C302008EF
:1043C00038C82F5950298F29102F20382621202016
:1043D000681145FE020202257F4040401A0CE06150
:1043E0001C0106380B191D42FE191D527F1A0412BA
:1043F0000211045A80011930D91D391621180819E3
:10440000242222223F20AB390F115F3F11202011BF
:104410000E21311A0E104B2011104B88F8102A1063
:10442000B359401A1F3F2B22130F16F088888818A3
:104430001A20D029D1497A21176B9494949360392A
:1044400060190F4C203F21F354809898793059120D
:104450001AC02719D1193039311F203F24022D30BD
:10446000212A0812893069D7294B2903190BC96001
:1044700079A019BF2B201FDD390F9C80FFA1E01907
:104480001229D03BA0FF0C3950194112208A01C0DB
:104490001B3324012A190F3AE0413952290F3923DD
:1044A00049603C103F202C29053F010E30080601D1
:1044B00070291038080F300C030C300F2C49A14E16
:1044C000312E0E31200C29621D818E70183059D189
:1044D000215721302C22213055807C0202443F405C
:1044E0004072FF39083C02027C8F5440403F8008F4
:1044F0000601010202040428090808088868180F48
:10450000E8081C080C0828700C21110D41817F015E
:10451000050931611B80604B4B2040D640080804E0
:10452000020140807F3301061A10011CF010FF04C5
:104530002C1018100F180D08040B0808FF08080BA2
:104540000408185049424A7F3D290B164020100CA0
:10455000033F030C102040C0AF180BFCFC7C603004
:1045600038188C8C84D820100303013F7F61456D7F
:104570006D3D1931313020100FA8A8ECECFCBCBE09
:10458000B6949494B484841010101C1F3F7D7E5AFE
:1045900052524242763F3F061010080C04C4FCFC05
:1045A0001C0C8C8C8C0C0C08083D20202021011E3A
:1045B000313F3F2E2040411FF8F818F8FCFC5E31D7
:1045C000180B212323233F3F203F3F3F0A2A22305D
:1045D000280820A0E0F83C2E260A19301010607838
:1045E0007E1F07060C0C18183030306040200FE09A
:1045F000E46CFCB8B6BE9C909C9EBEF6E0A00F1387
:1046000013111150585C7E7F0B09091919122C12D5
:1046100044033544281EE0F038286C01156868F022
:1046200080180AC06020F0780CE43C706C6CE0707C
:10463000281911100DC0F0D068CCDCEC34ECE8F097
:10464000E0000B44E030F83C54145454FC38100C97
:10465000070F090F1B190F0F090703100D0307069A
:104660000F1B10080704040301100C070B090F139C
:10467000190F09090701081B79030D0B1B180F0FF0
:104680000A0B06030101070C0B091D0C090B04039F
:10469000FFFF03011AFF01E11EC0E0F0F8FC012C4E
:1046A000FEFEFE070517F8F0E0C02D80E0F8F827C1
:1046B0001AFE442907062FFCF8F8E080F9802D0245
:1046C0001F3F7F1589010416BF1F07480901071FF7
:1046D0001FBFFF7F7F300008137F7F3F7FBF478171
:1046E0001AFCA1199E32F04AE0B10B13FC38801875
:1046F0000F40C020202830906808070303010304FE
:10470000190111100A0101FF0284181820501430F9
:10471000604049E018094060B04820FC0E0622C104
:10472000480A18BF630F0C181430400E3A7E6B1302
:10473000F8F0280B0103070707838180808009199F
:104740005D2DC0F0F0F801CA608061F3C11804105B
:10475000FF7003120304112828A7F3D13E1A01C6E3
:104760001CC1E0F0F52968390139922AC3871B077B
:1047700003BD2913BAC001CBCAC710FBC0C0114981
:1047800001FBC3C6121902F9144EC7C7CFCFC70128
:10479000190C590E7928C9FE13E03E1B08F4041ABF
:1047A000FC041AE80413043F1B08E4081AEC041381
:1047B000B92A1B0844101ADD0C1A200813B91A1B59
:1047C000085C0813051B1B08740813F51C1B08085C
:1047D0000813C00D14209D351408E92D1408992ED6
:0C47E0001C080D36242119EC01DA000041
:0400000508000131BD
:00000001FF
